:020000040800F2
:100000000000022035690008F1650008F36500086A
:10001000F5650008F7650008F965000800000000B4
:10002000000000000000000000000000FB65000868
:10003000FD65000800000000FF650008016600087B
:1000400085690008856900088569000885690008D8
:1000500085690008856900088569000885690008C8
:1000600085690008856900088569000885690008B8
:1000700085690008856900088569000885690008A8
:100080008569000885690008856900088569000898
:100090008569000885690008856900088569000888
:1000A00085690008096600088569000885690008F7
:1000B0008569000885690008856900088569000868
:1000C0008569000885690008856900088569000858
:1000D0008569000885690008856900088569000848
:1000E0008569000885690008856900088569000838
:1000F0008569000885690008856900088569000828
:100100008569000885690008856900088569000817
:100110008569000885690008856900088569000807
:10012000856900088569000811660008856900086E
:1001300085690008856900088569000885690008E7
:1001400085690008856900088569000885690008D7
:10015000856900088569000821660008856900082E
:1001600085690008856900088569000885690008B7
:10017000856900088569000885690008000000009D
:0801800085690008856900088B
:1001C00010B5054C237833B9044B13B10448AFF391
:1001D00000800123237010BDF809002000000000FA
:1001E000D4D9000808B5034B1BB103490348AFF34A
:1001F000008008BD00000000FC090020D4D90008E0
:1002000081F0004102E000BF83F0004330B54FEAC7
:1002100041044FEA430594EA050F08BF90EA020F34
:100220001FBF54EA000C55EA020C7FEA645C7FEAC7
:10023000655C00F0E2804FEA5454D4EB5555B8BFEA
:100240006D420CDD2C4480EA020281EA030382EA5B
:10025000000083EA010180EA020281EA0303362DED
:1002600088BF30BD11F0004F4FEA01314FF4801CC0
:100270004CEA113102D0404261EB410113F0004FD2
:100280004FEA03334CEA133302D0524263EB430389
:1002900094EA050F00F0A780A4F10104D5F1200E27
:1002A0000DDB02FA0EFC22FA05F2801841F1000182
:1002B00003FA0EF2801843FA05F359410EE0A5F156
:1002C00020050EF1200E012A03FA0EFC28BF4CF087
:1002D000020C43FA05F3C01851EBE37101F000453D
:1002E00007D54FF0000EDCF1000C7EEB00006EEB4A
:1002F0000101B1F5801F1BD3B1F5001F0CD34908D4
:100300005FEA30004FEA3C0C04F101044FEA44522A
:1003100012F5800F80F09A80BCF1004F08BF5FEAB1
:10032000500C50F1000041EB045141EA050130BD91
:100330005FEA4C0C404141EB0101013C28BFB1F5A3
:10034000801FE9D291F0000F04BF01460020B1FAEE
:1003500081F308BF2033A3F10B03B3F120020CDAC1
:100360000C3208DD02F1140CC2F10C0201FA0CF09F
:1003700021FA02F10CE002F11402D8BFC2F1200C04
:1003800001FA02F120FA0CFCDCBF41EA0C019040BA
:10039000E41AA2BF01EB0451294330BD6FEA040403
:1003A0001F3C1CDA0C340EDC04F11404C4F12002EE
:1003B00020FA04F001FA02F340EA030021FA04F300
:1003C00045EA030130BDC4F10C04C4F1200220FA57
:1003D00002F001FA04F340EA0300294630BD21FA95
:1003E00004F0294630BD94F0000F83F4801306BF5B
:1003F00081F480110134013D4EE77FEA645C18BF4F
:100400007FEA655C29D094EA050F08BF90EA020FE5
:1004100005D054EA000C04BF1946104630BD91EADD
:10042000030F1EBF0021002030BD5FEA545C05D1E0
:100430004000494128BF41F0004130BD14F580041F
:100440003CBF01F5801130BD01F0004545F0FE4193
:1004500041F470014FF0000030BD7FEA645C1ABFC8
:10046000194610467FEA655C1CBF0B46024650EAFF
:10047000013406BF52EA033591EA030F41F400212B
:1004800030BD00BF90F0000F04BF0021704730B5B1
:100490004FF4806404F132044FF000054FF0000186
:1004A00050E700BF90F0000F04BF0021704730B547
:1004B0004FF4806404F1320410F0004548BF40421C
:1004C0004FF000013EE700BF42004FEAE2014FEA71
:1004D00031014FEA02701FBF12F07F4393F07F4F4C
:1004E00081F06051704732F07F4208BF704793F04F
:1004F0007F4F04BF41F40021704730B54FF4607462
:1005000001F0004521F000411CE700BF50EA010264
:1005100008BF704730B54FF000050AE050EA01020D
:1005200008BF704730B511F0004502D5404261EB7D
:1005300041014FF4806404F132045FEA915C3FF4BE
:10054000D8AE4FF003025FEADC0C18BF03325FEA5B
:10055000DC0C18BF033202EBDC02C2F1200300FA0C
:1005600003FC20FA02F001FA03FE40EA0E0021FA31
:1005700002F11444BDE600BF4A0011D212F5001288
:1005800011D20DD56FF47873B3EB62520ED44FEAEB
:10059000C12343F0004343EA505323FA02F070476B
:1005A0004FF00000704750EA013002D14FF0FF30A9
:1005B00070474FF00000704753B94AB9002908BF8F
:1005C00000281CBF4FF0FF314FF0FF3001F0BEB8E4
:1005D000ADF1080C6DE904CE00F006F8DDF804E09A
:1005E000DDE9022304B070472DE9F047089E0D466F
:1005F00004468E46002B40F082808A42174646D938
:10060000B2FA82F24AB1C2F1200105FA02F320FAED
:1006100001F1974041EA030E94404FEA1748230C3A
:10062000BEFBF8FCB9B208FB1CEE43EA0E430CFB20
:1006300001F098420AD9FB180CF1FF3580F01681C1
:10064000984240F21381ACF1020C3B441B1AA4B255
:10065000B3FBF8F008FB103344EA034400FB01F15C
:10066000A14209D93C1900F1FF3380F00181A14278
:1006700040F2FE8002383C44641A40EA0C400021FB
:100680001EB1D4400023C6E90043BDE8F08702B99B
:10069000FFDEB2FA82F2002A4FD1CB1B4FEA174E8F
:1006A0001FFA87F80121B3FBFEFC250C0EFB1C335F
:1006B00045EA034508FB0CF3AB4207D97D190CF161
:1006C000FF3002D2AB4200F2E7808446ED1AA3B2BB
:1006D000B5FBFEF00EFB105543EA054408FB00F89D
:1006E000A04507D93C1900F1FF3302D2A04500F222
:1006F000D7801846A4EB080440EA0C40C0E78B42C0
:1007000008D9002E00F0AF800021C6E90005084698
:10071000BDE8F087B3FA83F100294BD1AB4202D395
:10072000824200F2B780841A65EB030301209E46E3
:10073000002EAAD0C6E9004EA7E7C2F1200C01FAAC
:1007400002F3974020FA0CF04FEA174E21FA0CFC06
:100750001843BCFBFEF1050C0EFB11CC1FFA87F809
:1007600045EA0C4501FB08F3AB4204FA02F409D94F
:100770007D1901F1FF3C80F08B80AB4240F2888014
:1007800002393D44EB1A85B2B3FBFEF00EFB103389
:1007900045EA034500FB08F3AB4207D97D1900F198
:1007A000FF3C71D2AB426FD902383D44EB1A40EAAC
:1007B000014178E7C1F1200C8B4022FA0CF71F436E
:1007C00020FA0CF405FA01F34FEA174E25FA0CF55E
:1007D0001C43230CB5FBFEF91FFA87F80EFB1955D5
:1007E00043EA054509FB08FAAA4502FA01F200FAB4
:1007F00001F308D97D1909F1FF3047D2AA4545D93F
:10080000A9F102093D44A5EB0A05A4B2B5FBFEF02F
:100810000EFB105544EA054400FB08F8A04507D933
:100820003C1900F1FF352DD2A0452BD902383C44AC
:1008300040EA0940A4EB0804A0FB02894C45C646E7
:100840004D4619D316D05EB1B3EB0E0264EB05042E
:1008500004FA0CFCCA404CEA0202CC40C6E900246F
:100860000021BDE8F087314630460EE7AC46EDE6A4
:10087000184601E74345E6D2B8EB020E69EB0705DF
:100880000138E0E72846D3E760468FE78146BAE7BC
:10089000614677E708464BE7ACF1020C3D4415E7AB
:1008A00002383C4426E700BF03685A004CBF43F0BF
:1008B000004323F000431844704700BF2DE9F8437C
:1008C00029B34F1E044615463E464FF0000808EB7C
:1008D000060101EBD171491004EBC1094846FFF74D
:1008E000E3FF0346C80008308F42204409D0AB42E2
:1008F00009D8FFF7D9FF0138A8420AD201F101084F
:10090000E5E7AB4205D9884501D04E1EDFE74FF041
:1009100000094846BDE8F883012807D0022807D01F
:10092000044B00280CBF184600207047024870474F
:1009300002487047DD0F0008E10F0008E50F0008CE
:1009400030B5234B83B004468D1E3BB301A9284626
:10095000AFF30080E8B101992A46FFF7AFFF0146E7
:10096000B8B1FFF7A1FF4B68A064012B2BD0002B7F
:1009700001F1040023DBFFF797FF0023C4E9130311
:100980000368002B10DBFFF78FFF2061002003B00E
:1009900030BD00230920236103B030BD0D490E484E
:1009A000091AC9100191D7E7C3F30360FFF7B4FF39
:1009B0000028206114BF0020092003B030BD0123AE
:1009C000C4E91303DCE7002323610520DFE700BF50
:1009D000000000006CF700085CF600080368DA0706
:1009E00010B5044606D49B0700F1480009D500F075
:1009F0004BFC2368590709D51A070ED5DB0613D51A
:100A000010BD00F039FC23685907F5D404F1D0007B
:100A100000F042FC23681A07F0D404F5A87000F037
:100A200043FC2368DB06EBD404F5E870BDE8104016
:100A300000F07EBC0346006800B11844704700BF58
:100A400009207047704700BF70B504460E46316CF0
:100A50002046FFF775FF054688B9336C636132465F
:100A600023692146012098470828F0D0072806D19D
:100A70002846316CFFF7E6FF301D00F0F1FB07F070
:100A8000F1FE00BF2DE9F0470D1D064614460FCDBF
:100A9000ADF5727D0DF10C0CACE80F000FCDACE89C
:100AA0000F000FCDACE80F0095E80F0002ADF7681E
:100AB000D6F818808CE80F0000232B6021E02B6C07
:100AC00073614FF4F07229467AA800F041FE336951
:100AD0007AAA314650469847889BCDE9005821466E
:100AE0006B648146334632460120B8470446E8B974
:100AF0004FF4F0727AA9284600F02AFEB9F1080FE7
:100B00001BD1296C3046FFF71BFF09345FFA84FACA
:100B100081460028D3D0AB6B4AF01001CDE90058D4
:100B200032466B6401203346B84708B14FF00909DB
:100B300048460DF5727DBDE8F087B9F1070FF5D194
:100B40002046296CFFF77EFF03A800F089FB00BF59
:100B5000406C7047F0B5CB6B0B640E1D0F4605461D
:100B60000FCEF9B001AC0FC40FCE0FC40FCE0FC41F
:100B700096E80F004FF0FF3684E80F00009606E07D
:100B80002B696A46294698470828044608D11099D7
:100B90002846FFF7D5FE0028F2D0092079B0F0BD35
:100BA0006846FFF71BFF062CF7D139462846FFF7AA
:100BB0004BFF00BF30B4DD6BC160826119461D641C
:100BC000002230BC5EE700BF70B5C66843690B64A5
:100BD000AEB903690A4604460D460146022098470D
:100BE000072805D008280FD129462046FFF72CFFFB
:100BF0003046296CFFF726FF281D00F031FB01224B
:100C0000FFF740FF07F02EFE07F02CFEC2681AB176
:100C1000CA6B0A64002235E79CE700BF704700BF3B
:100C2000836801460BB1012018477047012912D093
:100C300009D873B90F2A0CD800EB82021846536802
:100C4000009A136070470339012994BF01200220E4
:100C50007047022070470846704700BF10B584B047
:100C6000002303AC0A4600941946FFF7DFFF039800
:100C700004B010BD012912D009D873B90F2A0CD8BD
:100C800000EB8200009A12684260184670470339F0
:100C9000012994BF012002207047022070470846B6
:100CA000704700BF10B584B0002303AC03920094DA
:100CB0000A461946FFF7DEFF04B010BDF0B5D36B4E
:100CC0001364151D8C4606460FCDADF50F7D17AC90
:100CD0000FC40FCD0FC40FCD0FC495E80F004FF018
:100CE000FF3784E80F006546169710E0FFF7DAFF3C
:100CF000294616A8B047034616AA6946082083B9B4
:100D0000049B9847052804460CD0092809D0269949
:100D10006846FFF715FE03466A460C2116A8002B0D
:100D2000E4D0092416A8FFF759FE20460DF50F7DE3
:100D3000F0BD00BF2DE9F04FCC6C89B00D4654F8E2
:100D4000041B0694174600F003081E46002B79D0BA
:100D50000B0CDAB209048DF81D30022304EB820477
:100D600005918DF81C302B6DB8F1020F08BFAC6BEC
:100D700013F001030CD0384605A900F073FB18B935
:100D8000082009B0BDE8F08F092009B0BDE8F08F58
:100D9000D4F800A0BAF1000FEDD0019300F00803E1
:100DA0000293022E4AD0B4F800A0B4F802900434A2
:100DB000AA6C29F0010B0F2138469344FFF74EFF30
:100DC000834539D82AF001025A44824294BF002058
:100DD00001204FEA490303F002030AF0010A43EA43
:100DE0000A03012B49D0022B32D0002BCCD1B8F111
:100DF000000F02D0002840F0CD800434D4F800A0C9
:100E0000BAF1000FCDD105A9384600F02BFB002820
:100E1000BAD1019B002BB3D00F213846FFF71EFF3C
:100E20000E2102463846FFF73DFF38466A4A0F2139
:100E3000FFF738FF0720A8E70020CAE7D4F804909E
:100E40000834B5E7090203230591ADF81C308AE7A1
:100E5000236823F0004BB8F1000F45D128B1029A66
:100E6000002A5CD0BBF1000F74D0002B00DA0434F0
:100E70000BF1010B04EB8B04C0E7B8F1000F19D1A3
:100E8000B0B1D4E90023991C4FEAD2723FF47CAF91
:100E900005F158010133049100F09080201DFFF707
:100EA000C9FD04AB01462846AFF3008000285BD1A2
:100EB0000834A3E70D213846D5F82090FFF7CEFE81
:100EC0008145F5D1AB6A9C42F2D12046FFF7ECFC9C
:100ED0000F2102463846FFF7E5FE38462A46002134
:100EE000FFF7E0FE072050E70D213846D5F82090A7
:100EF000FFF7B4FE814501D02368B6E7AB6A9C4298
:100F0000FAD104220021C5E90B12A318C5F828B0B4
:100F10006B6323688B4259DB01230193A8E705F13A
:100F20005803CDF80C8004F1040AB04691461E46E1
:100F30000DE00496FFF77EFD04AB01460022284633
:100F4000AFF3008009F101090AF1040AE8B9D945B3
:100F50005046EED138460D21FFF780FE049B2862F3
:100F6000C5E90934062010E781460D213846FFF710
:100F700075FEB9F1020F286225D12B46049A43F879
:100F80002C2F6B62AC620620FFE646462368DDF834
:100F90000C806AE72046FFF787FC04340246AC6306
:100FA00028461446AFF3008000283FF4EDAE3846E3
:100FB00022460F21FFF776FE0720E6E638460D2190
:100FC000FFF74CFE2862049B6B62DBE70BF101002C
:100FD00004EB80007AE700BF000000000023A9E6D0
:100FE0000123A7E60223A5E62DE9F0430646C3B098
:100FF00015461C46042900F2B980DFE801F09A5337
:10100000B7290300002C40F0B180102A00F2AE8016
:101010000368D80600F1F38020AF384600F092F95B
:10102000B06B0023012404FA03F22A42014604D0E3
:1010300051F8042B47F8232008460133042BF2D142
:10104000B063384600F074F9002043B0BDE8F08387
:10105000032C40F08B8094B204EB1243102B4FEA28
:10106000124500F2838003681F0700F1D08020AF93
:10107000384600F03BF907EBC501B56B54B10B46A0
:10108000E81A01EBC401E4001A5843F8042B8B4220
:10109000FAD125443846B56300F006F9002043B084
:1010A000BDE8F083012C4FEA124895B25AD0052CC6
:1010B0005CD108EB0509B9F1200F57D8B8F10F0F33
:1010C00077D9A946002D40F08880B36B6DB320AF6F
:1010D0004FF0000907EBC807043F03EBC50553F8C1
:1010E000041B47F8041FAB42F9D1B9F1000F0FD030
:1010F0006F464146102938BF102107EBC1018439E2
:1011000003EBC90553F8040B41F8040FAB42F9D1C6
:10111000012C00F08480B8F10F0FB56345D9B9F107
:10112000000F02D0684600F0B7F8002043B0BDE8D9
:10113000F083DCB9876B2346012094B206F1040CDE
:1011400000FA03F22242394604D051F8042B4CF83D
:1011500023200F460133102BF2D115F40050E4D1B7
:10116000B76304E008EB0503102B03D9022043B05A
:10117000BDE8F083B8F10F0FF8D83368DA0706D569
:10118000304623F0030340F8483B00F079F820AFE5
:10119000384600F075F8B36B002D99D11D46043523
:1011A000B563384600F068F8BFE720A800F06CF897
:1011B000B5E7B9F1100F40D9A9F110093368D90783
:1011C00008D523F00103304643F0020340F8483BC2
:1011D00000F05EF8B9F1000F32D033685A0720D41E
:1011E000B8F10F0F25D96F463846C8F1100500F049
:1011F00057F8002DB36B7FF77CAF20AF6AE723F081
:101200001003336006F5E87000F09CF804E723F063
:101210000803036000F5A87000F068F827E720AF26
:10122000BDE7304623F0040340F8D03B00F038F827
:10123000D6E720A800F02CF8D5E74FF00009BDE76D
:10124000B8F10F0F3FF641AF20AF384600F020F85D
:10125000B36B002D7FF43CAF384600F015F864E71F
:1012600000F1340191E838009C46A6464CF8045D34
:1012700090E8FF0FE54600BD90EC210B704700BFE2
:1012800080EC210B704700BF90EC200B704700BF33
:1012900080EC200B704700BFD0EC200B704700BFE4
:1012A000C0EC200B704700BFF0EC0201F0EC021123
:1012B000F0EC0221F0EC0231F0EC0241F0EC0251D2
:1012C000F0EC0261F0EC0271F0EC0281F0EC0291C2
:1012D000F0EC02A1F0EC02B1F0EC02C1F0EC02D1B2
:1012E000F0EC02E1F0EC02F1704700BFE0EC02012B
:1012F000E0EC0211E0EC0221E0EC0231E0EC024112
:10130000E0EC0251E0EC0261E0EC0271E0EC028101
:10131000E0EC0291E0EC02A1E0EC02B1E0EC02C1F1
:10132000E0EC02D1E0EC02E1E0EC02F1704700BF3A
:10133000B0FC0181B0FC0191B0FC01A1B0FC01B195
:10134000704700BFA0FC0181A0FC0191A0FC01A19D
:10135000A0FC01B1704700BFEC4600B52DE900507C
:101360002DE9FF1F4FF000032DE90C0001A9FFF745
:10137000F1FBDDF840E012B0704700BFEC4600B56D
:101380002DE900502DE9FF1F4FF000032DE90C005F
:1013900001A9FFF719FCDDF840E012B0704700BF6B
:1013A000EC4600B52DE900502DE9FF1F4FF000037A
:1013B0002DE90C0001A9FFF729FCDDF840E012B08F
:1013C000704700BFEC4600B52DE900502DE9FF1F26
:1013D0004FF000032DE90C0001ABFFF7EBFBDDF84C
:1013E00040E012B0704700BFEC4600B52DE9005058
:1013F0002DE9FF1F4FF000032DE90C0001AAFFF7B4
:101400005DFCDDF840E012B0704700BF027A7AB9A7
:10141000437AA3B14268013B10B4437213680321BD
:10142000141D01721A024460026010BC180E70474D
:101430000368013A02721A020260180E7047B02067
:10144000704700BF00B585B003AA0023009219467B
:101450000C22FFF7EBFB039805B05DF804FB00BF1F
:10146000F0E700BF2DE9F043054685B00E464FF08A
:1014700000083046FFF7CAFFB028044600F0B280EB
:10148000070620D500F0F003802B4DD0902B36D0EE
:10149000A02B60D0B02B74D0C02B00F08B8000F05C
:1014A000F803D02B0BD100F00702013242F40022E6
:1014B000052301212846FFF797FD0028D9D00920F0
:1014C00005B0BDE8F0830DF10C0900231946870033
:1014D000CDF800900D222846FFF7A8FBFFB2039B32
:1014E000CDF80090043760064CBFDF1BFF180023C7
:1014F00019460D2228460397FFF7BCFBB9E700F019
:101500000D030D2BDBD003AF002300F00F021946B3
:1015100000972846FFF78AFB0023009719460D2203
:101520002846FFF7A7FBA4E73046FFF76FFF24022A
:101530002043B0F5004FC2D004010023A2B21946E7
:101540002846FFF751FD0028B9D114F4004F18BF09
:101550004FF001088DE7C24302F007034FF47F62AA
:101560001A41010702F47F624FF0000348BF42F4C2
:10157000804219462846FFF737FD00283FF479AF2F
:101580009DE7B12833D0B22800F08B80B32839D042
:1015900000F0FC03B42B92D000F0070201320123CB
:1015A00042F4002219462846FFF71EFD00283FF4AA
:1015B00060AF84E7C62842D0C7284CD000F0F803BB
:1015C000C02B5BD0C82860D0C9287FF478AF3046E4
:1015D000FFF71CFF020300F00F0002F4702201303D
:1015E000024365E7B8F1000F18D0002068E73046E5
:1015F000FFF70CFF024600283FF461AF10F0F00344
:10160000D0D05CE73046FFF701FF010300F00F0088
:1016100001F47021421C01230A43C3E703AC434693
:101620000E22414600942846FFF700FB009428460E
:1016300043460F224146FFF71DFB404640E7304638
:10164000FFF7E4FE010300F00F0001F47021421CDB
:1016500003230A43A6E73046FFF7D8FE02460028D8
:101660003FF42DAF10F0F0037FF429AF042128469A
:10167000FFF7BAFC00283FF4FCAE20E700F00F02B1
:101680000132032342F420228CE73046FFF7BEFEEE
:1016900000F0F00200F00F031032013343EA02328F
:1016A00006E700230DF10C090D221946CDF8009034
:1016B0002846FFF7BBFA3046FFF7A8FE02064FF0B8
:1016C00002070CD5039B00F07F00B840034430466E
:1016D0000393FFF79BFE030607F10707F2D4039B72
:1016E000CDF8009000F07F0403F50172BC400023A8
:1016F000144419460D2228460394FFF7BBFAB8E6B6
:1017000010B5C26C84B0536803248DF80C401B02E2
:1017100002F108040846D279019301A902948DF8D8
:101720000D20FFF79FFE04B010BD00BF08B5FFF706
:1017300097FE806C08BD00BF08B5FFF791FEC06C36
:10174000C379023300EB830008BD00BF704700BFC0
:10175000844641EA000313F003036DD1403A41D3BC
:1017600051F8043B40F8043B51F8043B40F8043B7B
:1017700051F8043B40F8043B51F8043B40F8043B6B
:1017800051F8043B40F8043B51F8043B40F8043B5B
:1017900051F8043B40F8043B51F8043B40F8043B4B
:1017A00051F8043B40F8043B51F8043B40F8043B3B
:1017B00051F8043B40F8043B51F8043B40F8043B2B
:1017C00051F8043B40F8043B51F8043B40F8043B1B
:1017D00051F8043B40F8043B51F8043B40F8043B0B
:1017E000403ABDD2303211D351F8043B40F8043BAB
:1017F00051F8043B40F8043B51F8043B40F8043BEB
:1018000051F8043B40F8043B103AEDD20C3205D3BA
:1018100051F8043B40F8043B043AF9D2043208D0B2
:10182000D2071CBF11F8013B00F8013B01D30B8824
:1018300003806046704700BF082A13D38B078DD002
:1018400010F003038AD0C3F10403D21ADB071CBFD4
:1018500011F8013B00F8013B80D331F8023B20F83E
:10186000023B7BE7043AD9D3013A11F8013B00F877
:10187000013BF9D20B7803704B7843708B788370FF
:1018800060467047000000000000000000000000FB
:101890000000000000000000000000000000000048
:1018A000A2EB0300704700BF02780B78012A28BF23
:1018B0009A42F5D16DE9044540EA0104CDE9026799
:1018C0006FF0000C4FEA447212B380EA010414F086
:1018D000070F6AD100F0070420F0070004F00305A9
:1018E00021F007014FEAC505F0E8042314F0040FC6
:1018F000F1E804670CFA05F462EA040266EA0406F9
:101900000AD063EA0403624667EA0407664603E016
:10191000F0E80423F1E8046782FA4CF582EA060451
:10192000A4FA8CF46CBB83FA4CF583EA0705A5FA9C
:101930008CF595B950E9022351E9026782FA4CF51A
:1019400082EA0604A4FA8CF483FA4CF583EA0705CC
:10195000A5FA8CF52543DBD09CB92DBAB5FA85F4F0
:1019600024F0070427FA04F1DDE9026723FA04F3FF
:1019700003F0FF0001F0FF01FDE80445A0EB0100CA
:10198000704724BAB4FA84F424F0070426FA04F168
:10199000DDE9026722FA04F202F0FF0001F0FF0124
:1019A000FDE80445A0EB0100704714F0030F3CD1A3
:1019B00010F0030428D150F8082B51F8083B82FAA4
:1019C0004CF582EA0305A5FA8CF55DB950F8042CB4
:1019D00051F8043C82FA4CF582EA0305A5FA8CF52D
:1019E000002DE8D02DBAB5FA85F424F0070423FAC7
:1019F00004F122FA04F202F0FF0001F0FF01FDE819
:101A00000445A0EB010070474FEAC40420F0030036
:101A100050F8082B21F0030151F8083B0CFA04F4AC
:101A200062EA040263EA0403C9E710F003041AD06F
:101A3000A1EB040120F00300E40750F8042B06D0CA
:101A40000FD28B785FFAA2F4E41A06D12BB1CB78CF
:101A50005FFAB2F4E41A00D11BB920465DF8104BCE
:101A6000704701F1040150F8042BCC0721F0030169
:101A700051F8043B48D824D222F07F4482FA4CF536
:101A800094EA1325A5FA8CF50AD165B951F8043BFF
:101A900084EA0204B4EB036F0ED150F8042BEBE799
:101AA0004FEA132355E035F07F454DD10878FDE826
:101AB0000445C0F1000070474FEA126203F0FF03D3
:101AC00047E002EA1C4482FA4CF594EA1345A5FA71
:101AD0008CF50AD165B951F8043B84EA0204B4EBF1
:101AE000034F0CD150F8042BEBE74FEA134330E0DF
:101AF00015EA1C4528D10B884FEA124229E04FEA2B
:101B0000124203EA1C4324E002F0FF0482FA4CF57F
:101B100094EA1365A5FA8CF50AD165B951F8043B2E
:101B200084EA0204B4EB032F09D150F8042BEBE74D
:101B30004FEA13630DE015F0FF0F05D10B684FEA74
:101B4000122223F07F4304E04FF00000FDE804453B
:101B5000704712BA1BBA82FA4CF482EA0304A4FA60
:101B60008CF5B5FA85F402FA04F203FA04F34FEAAD
:101B70001260FDE80445A0EB136070470000000010
:101B800001F0FF01102A2BDB10F0070F08D010F82E
:101B9000013B013A8B422DD010F0070F42B3F6D132
:101BA000F0B441EA012141EA014122F007047FF04B
:101BB00000070023F0E80256083C85EA010586EAA2
:101BC000010685FA47F5A3FA87F586FA47F6A5FADE
:101BD00087F68EB9EED1F0BC01F0FF0102F00702EA
:101BE00032B110F8013B013A83EA010313B1F8D195
:101BF0000020704701387047002D06BF3546033876
:101C0000073815F0010F07D1013015F4807F02BFAE
:101C1000013015F4C03F0130F0BC0138704700BFFF
:101C200000000000000000000000000000000000B4
:101C300000000000000000000000000000000000A4
:101C400090F800F06DE9024520F007016FF0000CFC
:101C500010F0070491F820F040F049804FF00004A4
:101C60006FF00700D1E9002391F840F000F108007F
:101C700082FA4CF2A4FA8CF283FA4CF3A2FA8CF3B7
:101C80004BBBD1E9022382FA4CF200F10800A4FA1E
:101C90008CF283FA4CF3A2FA8CF3E3B9D1E9042372
:101CA00082FA4CF200F10800A4FA8CF283FA4CF3A9
:101CB000A2FA8CF37BB9D1E9062301F1200182FA63
:101CC0004CF200F10800A4FA8CF283FA4CF3A2FA69
:101CD0008CF3002BC6D0002A04BF04301A4612BA77
:101CE000B2FA82F2FDE8024500EBD2007047D1E97A
:101CF000002304F00305C4F100004FEAC50514F009
:101D0000040F91F840F00CFA05F562EA05021CBFD9
:101D100063EA050362464FF00004A9E770B54FF08F
:101D2000FF0C4CF4E06C1CEA11541DBF1CEA135567
:101D300094EA0C0F95EA0C0F00F0DEF82C4481EACF
:101D4000030621EA4C5123EA4C5350EA013518BFEF
:101D500052EA033541F4801143F4801338D0A0FBDC
:101D600002CE4FF00005E1FB02E506F00042E0FB89
:101D700003E54FF00006E1FB03569CF0000F18BF8F
:101D80004EF0010EA4F1FF04B6F5007F64F5407437
:101D900004D25FEA4E0E6D4146EB060642EAC621CA
:101DA00041EA55514FEAC52040EA5E504FEACE2E37
:101DB000B4F1FD0C88BFBCF5E06F1ED8BEF1004F3A
:101DC00008BF5FEA500E50F1000041EB045170BDB6
:101DD00006F0004646EA010140EA020081EA0301FA
:101DE000B4EB5C04C2BFD4EB0C0541EA045170BDF6
:101DF00041F480114FF0000E013C00F3AB8014F170
:101E0000360FDEBF002001F0004170BDC4F10004B8
:101E1000203C35DA0C341BDC04F11404C4F1200539
:101E200000FA05F320FA04F001FA05F240EA020094
:101E300001F0004221F0004110EBD37021FA04F6CA
:101E400042EB06015EEA430E08BF20EAD37070BD84
:101E5000C4F10C04C4F1200500FA04F320FA05F0E3
:101E600001FA04F240EA020001F0004110EBD370E5
:101E700041F100015EEA430E08BF20EAD37070BD55
:101E8000C4F1200500FA05F24EEA020E20FA04F32E
:101E900001FA05F243EA020321FA04F001F00041DD
:101EA00021FA04F220EA020000EBD3705EEA430E4E
:101EB00008BF20EAD37070BD94F0000F0FD101F07D
:101EC0000046400041EB010111F4801F08BF013CB6
:101ED000F7D041EA060195F0000F18BF704703F0F4
:101EE0000046520043EB030313F4801F08BF013D7B
:101EF000F7D043EA0603704794EA0C0F0CEA135537
:101F000018BF95EA0C0F0CD050EA410618BF52EAF0
:101F10004306D1D181EA030101F000414FF00000F6
:101F200070BD50EA410606BF1046194652EA430604
:101F300019D094EA0C0F02D150EA013613D195EA78
:101F40000C0F05D152EA03361CBF104619460AD1C0
:101F500081EA030101F0004141F0FE4141F47001CA
:101F60004FF0000070BD41F0FE4141F4780170BDBA
:101F700070B54FF0FF0C4CF4E06C1CEA11541DBF1F
:101F80001CEA135594EA0C0F95EA0C0F00F0A7F821
:101F9000A4EB050481EA030E52EA03354FEA01314E
:101FA00000F088804FEA03334FF0805545EA131361
:101FB00043EA12634FEA022245EA111545EA106529
:101FC0004FEA00260EF000419D4208BF964244F1C0
:101FD000FD0404F5407402D25B084FEA3202B61ADF
:101FE00065EB03055B084FEA32024FF480104FF4B3
:101FF000002CB6EB020E75EB030E22BFB61A754627
:1020000040EA0C005B084FEA3202B6EB020E75EBB9
:10201000030E22BFB61A754640EA5C005B084FEA21
:102020003202B6EB020E75EB030E22BFB61A7546EE
:1020300040EA9C005B084FEA3202B6EB020E75EBF9
:10204000030E22BFB61A754640EADC0055EA060EBA
:1020500018D04FEA051545EA16754FEA06164FEAFD
:10206000C30343EA52734FEAC2025FEA1C1CC0D1A9
:1020700011F4801F0BD141EA00014FF000004FF036
:10208000004CB6E711F4801F04BF01430020B4F1F7
:10209000FD0C88BFBCF5E06F3FF6AFAEB5EB030CAF
:1020A00004BFB6EB020C5FEA500C50F1000041EBAC
:1020B000045170BD0EF0004E4EEA113114EB5C0479
:1020C000C2BFD4EB0C0541EA045170BD41F480114C
:1020D0004FF0000E013C90E645EA060E8DE60CEA54
:1020E000135594EA0C0F08BF95EA0C0F3FF43BAF71
:1020F00094EA0C0F0AD150EA01347FF434AF95EA28
:102100000C0F7FF425AF104619462CE795EA0C0F0B
:1021100006D152EA03353FF4FDAE1046194622E7D8
:1021200050EA410618BF52EA43067FF4C5AE50EAB2
:1021300041047FF40DAF52EA43057FF4EBAE12E7A2
:102140004FF0FF3C06E000BF4FF0010C02E000BF83
:102150004FF0010C4DF804CD4FEA410C7FEA6C5C66
:102160004FEA430C18BF7FEA6C5C1BD001B050EA09
:10217000410C0CBF52EA430C91EA030F02BF90EAF4
:10218000020F0020704710F1000F91EA030F58BFB3
:10219000994208BF90422CBFD8176FEAE37040F015
:1021A000010070474FEA410C7FEA6C5C02D150EAB3
:1021B000013C07D14FEA430C7FEA6C5CD6D152EA6E
:1021C000033CD3D05DF8040B704700BF8446104633
:1021D00062468C461946634600E000BF01B5FFF732
:1021E000B7FF002848BF10F1000F01BD4DF808ED02
:1021F000FFF7F4FF0CBF012000205DF808FB00BFD3
:102200004DF808EDFFF7EAFF34BF012000205DF82C
:1022100008FB00BF4DF808EDFFF7E0FF94BF012079
:1022200000205DF808FB00BF4DF808EDFFF7CEFF7A
:1022300094BF012000205DF808FB00BF4DF808EDB9
:10224000FFF7C4FF34BF012000205DF808FB00BF8A
:102250004FEA410C7FEA6C5C02D150EA013C0AD1A2
:102260004FEA430C7FEA6C5C02D152EA033C02D194
:102270004FF0000070474FF0010070474FEA4102F5
:1022800012F5001215D211D56FF47873B3EB6252C8
:1022900012D94FEAC12343F0004343EA505311F0EF
:1022A000004F23FA02F018BF404270474FF0000081
:1022B000704750EA013005D111F0004008BF6FF0BF
:1022C000004070474FF00000704700BF10B582B06B
:1022D000002401940D4B1A6B42F480021A631B6BAD
:1022E00003F480030193019B224621463A2004F027
:1022F000EBFB3A2004F01CFC22462146462004F069
:10230000E3FB462004F014FC02B010BD003802408C
:10231000224B1B6803B170472DE9F04186B00124C0
:102320001E4B1C60002300931D4B9A6B22439A6343
:102330009B6B23400093009B4FF48058CDF80480A2
:10234000022702970394032604960C25059501A9FC
:10235000144804F019FE4FF680730193029703941A
:102360000496059501A9104804F00EFE4CF2337353
:102370000193029703940496059501A90B4804F074
:1023800003FECDF80480029703940496059501A9F5
:10239000074804F0F9FD06B0BDE8F081140A0020FA
:1023A000003802400014024000100240000C0240BD
:1023B0000018024030B58FB01C484FF02043036036
:1023C00003F582734360062383600023C3600361C7
:1023D000102242618361C361036243624FF4805102
:1023E0008162C3624FF4804101634363836343644A
:1023F0000F21079108913C2409940A930B92112410
:102400000C940D93092500950191082102910393E5
:102410000492059406936A4607A905F0C7F908B91E
:102420000FB030BD04F057F8FAE700BF180A0020DB
:1024300008B5FFF76DFF08BDF0B58DB00024079417
:10244000089409940A940B940094354B1A6B42F04B
:1024500020021A631A6B02F020020092009A019483
:102460001A6B42F080021A631A6B02F0800201922A
:10247000019A02941A6B42F010021A631A6B02F06E
:1024800010020292029A03941A6B42F002021A633B
:102490001A6B02F002020392039A04941A6B42F040
:1024A00008021A631A6B02F008020492049A059457
:1024B0001A6B42F001021A631A6B02F001020592D4
:1024C000059A06941A6B42F040021A631B6B03F0E4
:1024D00040030693069B134F01224FF4C061384618
:1024E00004F03CFE104E22464FF40041304604F00A
:1024F00035FE4FF4C06307930125089509950A94AA
:1025000007A9384604F040FD4FF4004307930895AF
:1025100009950A9507A9304604F036FD0DB0F0BDC7
:1025200000380240001402400004024082B0ADF8BE
:102530000600BDF806309BB2ADF80630BDF8063097
:102540009BB2024A138002B0704700BF7E00006C4D
:1025500082B0ADF80600BDF806309BB2ADF806308B
:10256000BDF806309BB2024A538002B0704700BFEC
:102570007E00006C82B0054B5B889BB2ADF80630E4
:10258000BDF8060080B202B0704700BF7E00006C4C
:10259000014B1880598070477E00006C08B5FFF72A
:1025A000C5FF052004F00EF9FFF7E4FF08BD0000A9
:1025B000024B1A89024B1A80704700BF6C0A002038
:1025C0007E00006C70B504460D46614B9B8849F255
:1025D000413293421FD045F2103293421BD046F64F
:1025E000040293422BD041F66312934246D045F247
:1025F0001052934200F08680554B9B79012B00F0DE
:102600009F80534E21467089FFF7C2FF2946B0894B
:10261000FFF7BEFF12E04E4E7089FFF787FF200ADA
:10262000FFF796FFE0B2FFF793FFB089FFF77EFF59
:10263000280AFFF78DFFE8B2FFF78AFF70BD444B11
:102640009B79012B13D0424E7089FFF76FFF200A50
:10265000FFF77EFFE0B2FFF77BFFB089FFF766FF71
:10266000280AFFF775FFE8B2FFF772FFE6E7384B7D
:102670001B881C1AA4B2013CA4B2E4E7344B9B793A
:1026800053BB334A13881C1AA4B2013CA4B250892C
:10269000FFF74CFF0020FFF75BFF0020FFF758FF1C
:1026A000200AFFF755FFE0B2FFF752FF284CA08940
:1026B000FFF73CFF280AFFF74BFFE8B2FFF748FFA0
:1026C00060880138C0F30F20FFF742FF60880138AF
:1026D000C0B2FFF73DFFB1E71D4E7089FFF726FF3F
:1026E000200AFFF735FFE0B2FFF732FF30880138EC
:1026F000C0F30F20FFF72CFF30880138C0B2FFF77E
:1027000027FFD3E7124E7089FFF710FF200AFFF76B
:102710001FFF7089013080B2FFF708FFE0B2FFF7BA
:1027200017FFB089FFF702FF280AFFF711FFB089F2
:10273000013080B2FFF7FAFEE8B2FFF709FF7DE74C
:10274000034B1B881C1AA4B2013CA4B259E700BF7A
:102750006C0A002010B5964B9B79012B29D02BB920
:10276000934B9A8841F663139A422CD0904B9B88E6
:1027700049F2413293423ED046F6040293423AD0A7
:1027800045F21032934236D045F21052934232D085
:1027900041F6631293422ED0072800F2F480DFE85E
:1027A00010F00501F400FB00F200FD00FF00010144
:1027B00003017F4A928846F604018A42CFD041F64F
:1027C00063118A42CBD00728D0D8DFE800F012048A
:1027D00006080A0C0E100720C8E70420C6E70520EB
:1027E000C4E70120C2E70020C0E70320BEE70220C3
:1027F000BCE70620BAE70138062805D8DFE800F074
:102800006A06606264666800002400E0402445F2C5
:102810001052934260D0362045F21032934209D0D4
:1028200045F21052934205D041F66312934201D013
:1028300044F0080446F60402934250D02146FFF7C4
:10284000A7FE5B4B9B8841F6631293420AD014F0BB
:10285000200F47D0564A11885288914202D25448DC
:102860000280418045F21052934244D0504C60891E
:10287000FFF75CFE0020FFF76BFE0020FFF768FE0D
:1028800020880138C0F30F20FFF762FE208801384E
:10289000C0B2FFF75DFEA089FFF748FE0020FFF7FA
:1028A00057FE0020FFF754FE60880138C0F30F2068
:1028B000FFF74EFE60880138C0B2FFF749FE10BD39
:1028C000C024A4E72024A2E76024A0E7A0249EE778
:1028D000E0249CE780249AE74FF458509CE744F0AA
:1028E0000204ABE7324A118852889142BAD9304883
:1028F00002804180B6E72E4C6089FFF717FE00206A
:10290000FFF726FE6089013080B2FFF70FFE00203E
:10291000FFF71EFE6089023080B2FFF707FE2088B5
:102920000138C0F30F20FFF713FE6089033080B237
:10293000FFF7FCFD20880138C0B2FFF709FEA0892F
:10294000FFF7F4FD0020FFF703FEA089013080B2FD
:10295000FFF7ECFD0020FFF7FBFDA089023080B2FD
:10296000FFF7E4FD60880138C0F30F20FFF7F0FDAA
:10297000A089033080B2FFF7D9FD60880138C0B26A
:10298000FFF7E6FD9BE7002100E0102141F48051B4
:102990000320FFF7FDFD92E72021F7E73821F5E757
:1029A0002821F3E71821F1E70821EFE73021EDE7CF
:1029B0006C0A00202DE9F04104460D461646584B9E
:1029C0009B8849F2413293421ED045F21032934225
:1029D0001AD045F21052934230D041F6631293421E
:1029E0004AD046F60402934274D04D4B9B79012B9A
:1029F00000F08F804A4F21467889FFF7C9FD2946AC
:102A0000B889FFF7C5FD12E0454F7889FFF78EFDC5
:102A1000200AFFF79DFDE0B2FFF79AFDB889FFF7A6
:102A200085FD280AFFF794FDE8B2FFF791FD3C4BC6
:102A30001A893C4B1A805E80BDE8F081384F788956
:102A4000FFF774FD200AFFF783FD7889013080B21B
:102A5000FFF76CFDE0B2FFF77BFDB889FFF766FD7D
:102A6000280AFFF775FDB889013080B2FFF75EFDD7
:102A7000E8B2FFF76DFDDAE7294B9B792BB9284BBC
:102A80001888041BA4B2013CA4B2254F7889FFF733
:102A90004DFD4FEA14284046FFF75AFDE4B22046A8
:102AA000FFF756FD4046FFF753FD2046FFF750FD68
:102AB000B889FFF73BFD2C0A2046FFF749FDEDB230
:102AC0002846FFF745FD2046FFF742FD2846FFF761
:102AD0003FFDACE7124B9B79012B13D0104F788947
:102AE000FFF724FD200AFFF733FDE0B2FFF730FDCA
:102AF000B889FFF71BFD280AFFF72AFDE8B2FFF7A8
:102B000027FD94E7064B1B881C1AA4B2013CA4B213
:102B1000E4E7034B1B881C1AA4B2013CA4B269E78A
:102B20006C0A00207E00006C10B50446BE20FFF742
:102B3000FDFC0520FFF70CFD2046FDF7B3FC0CA3C0
:102B4000D3E90023FFF7EAF8FDF716FD80B2FFF79F
:102B5000FFFC0120FFF7FCFCFF20FFF7F9FC002041
:102B6000FFF7F6FC0020FFF7F3FC10BDAFF3008089
:102B7000666666666666044008B500285AD1604BF2
:102B800000229A71F0221A804FF4A0725A809B881A
:102B900049F24132934217D046F60402934213D0D1
:102BA00045F2103293420FD045F21052934222D098
:102BB00041F6631293422FD0514B22221A812022D8
:102BC0005A8121229A8170E04D4A2C2111812A21BB
:102BD00051812B21918146F60402934203D045F2A4
:102BE0001032934261D1464B4FF4A0721A804FF4D9
:102BF000F0725A8059E0424B4FF430521A814FF430
:102C000028525A814FF42C529A814FF4F0721A8054
:102C10004FF448725A8048E0394B2C221A812B22FB
:102C20005A812A229A814FF4F0721A804FF4487226
:102C30005A803AE0324B01229A714FF4A0721A8006
:102C4000F0225A809B8849F24132934217D045F2D4
:102C50001032934213D046F60402934229D045F233
:102C6000105293422DD041F6631293423AD0244A37
:102C700022211181212151812021918106E0204AC8
:102C80002C2111812A2151812B21918146F60402A8
:102C9000934203D045F21032934206D1184B4FF4C1
:102CA000F0721A804FF4A0725A800020FFF752FD94
:102CB00008BD134A2C2111812B2151812A21918198
:102CC000E4E70F4A4FF4305111814FF428515181FC
:102CD0004FF42C5191814FF4487111804FF4F071F1
:102CE0005180D3E7064A2C2111812A2151812B21C1
:102CF00091814FF4487111804FF4F0715180C5E714
:102D00006C0A00202DE9F0410546174B1C885A88B3
:102D100004FB02F49A8846F604039A4203D1124B4C
:102D20009B79012B07D000210846FFF74BFCFFF7EA
:102D30003FFC002314E00C4E0020B0712A2777815D
:102D40004FF02B08A6F80C800146FFF73BFC01234F
:102D5000B371A6F80A80B781E9E7044A55800133C8
:102D6000A342FAD3BDE8F0816C0A00207E00006C1B
:102D700010B582B000240194322003F07FFE0121BF
:102D80002046FFF705FC322003F078FE2046FFF7CF
:102D900005FC634B9880A0F1FF039BB2B3F57F4F16
:102DA00033D2B0F5134F30D05D4B9B8849F241329E
:102DB000934200F0B98045F21032934200F0B480A3
:102DC00045F21052934200F0AF8041F663129342F5
:102DD00000F0AA8046F60402934204D04CF2055259
:102DE000934240F0B2804F4A916921F00F01916106
:102DF000916921F470619161916941F00A019161D9
:102E0000916941F4406191619FE0D320FFF78EFB0F
:102E1000FFF7B0FB424CA080FFF7ACFBA080FFF7B0
:102E2000A9FB0002A080FFF7A5FBA388184380B28E
:102E3000A08049F241339842B6D0BF20FFF776FB1D
:102E4000FFF798FBA080FFF795FBA080FFF792FBB0
:102E5000A080FFF78FFB0002A080FFF78BFBA38809
:102E6000184380B2A08046F6040398429CD0D42038
:102E7000FFF75CFBFFF77EFBA080FFF77BFBA080EA
:102E8000FFF778FB0002A080FFF774FBA3881843CC
:102E900080B2A08045F21033984285D04FF45A405A
:102EA000FFF744FBFFF766FBA0804FF45B40FFF7A2
:102EB0003DFBFFF75FFB0002A0804FF45C40FFF793
:102EC00035FBFFF757FBA388184380B2A080B0F50D
:102ED000004F20D0124B9A8845F210539A423FF48B
:102EE00063AFA120FFF722FBFFF744FB0C4CA0804F
:102EF000FFF740FB0002A080FFF73CFBA3880343E1
:102F00009BB2A38045F2617293427FF44DAF41F6CC
:102F10006312A28048E745F21052A280DAE700BFB0
:102F20006C0A0020040100A08A4A916921F00F0177
:102F30009161916921F470619161916941F003019E
:102F40009161916941F40071916149F2413293427A
:102F500000F0028146F60402934200F0208245F21E
:102F60001032934200F0C68245F21052934201F0B3
:102F70003A8249F22532934202F0B38149F2283273
:102F8000934202F0858249F22032934202F0748328
:102F900049F23132934202F01C8445F208429342D6
:102FA00002F0FA8441F20552934202F098854BF206
:102FB0000552934202F0A7864CF20552934202F06A
:102FC000A58744F23152934203F0708044F23552A7
:102FD000934203F0268141F66312934240F0D08180
:102FE000E220FFF7A3FA1D20FFF7B2FA0220FFF755
:102FF000AFFA0420FFF7ACFA642003F0E3FBE02013
:10300000FFF794FA0120FFF7A3FA0A2003F036FD38
:10301000E020FFF78BFA0320FFF79AFA0C2003F069
:103020002DFD0120FFF782FA0A2003F027FDE6209C
:10303000FFF77CFA2F20FFF78BFAFF20FFF788FAC3
:10304000FF20FFF785FAB020FFF770FA2020FFF786
:103050007FFA0020FFF77CFA0320FFF779FA40F2AD
:103060001F30FFF775FA0120FFF772FA40F2DF1008
:10307000FFF76EFA0020FFF76BFAB420FFF756FA5D
:103080000420FFF765FA40F21F40FFF761FA0020C5
:10309000FFF75EFA2E20FFF75BFA0020FFF758FAE1
:1030A0000020FFF755FA0020FFF752FA0020FFF743
:1030B0004FFAB620FFF73AFA0220FFF749FA4FF429
:1030C0000370FFF745FA0020FFF742FA1720FFF7D9
:1030D0003FFA1520FFF73CFA0020FFF739FA0020ED
:1030E000FFF736FAF020FFF721FA0320FFF730FA56
:1030F0002920FFF71BFAD020FFF718FA0020FFF76E
:1031000027FABE20FFF712FA0520FFF721FAFE206A
:10311000FFF71EFA0120FFF71BFA0020FFF718FA4D
:103120000020FFF715FA0020FFF712FAB820FFF78A
:10313000FDF90320FFF70CFA0120FFF709FABA2086
:10314000FFF7F4F90120FFF703FA6420FFF7ECFC26
:1031500016E100BF040100A0CF20FFF7E7F900202F
:10316000FFF7F6F9C120FFF7F3F93020FFF7F0F988
:10317000ED20FFF7DBF96420FFF7EAF90320FFF702
:10318000E7F91220FFF7E4F98120FFF7E1F9E820E1
:10319000FFF7CCF98520FFF7DBF91020FFF7D8F90E
:1031A0007A20FFF7D5F9CB20FFF7C0F93920FFF7D8
:1031B000CFF92C20FFF7CCF90020FFF7C9F9342014
:1031C000FFF7C6F90220FFF7C3F9F720FFF7AEF9C2
:1031D0002020FFF7BDF9EA20FFF7A8F90020FFF74C
:1031E000B7F90020FFF7B4F9C020FFF79FF91B20C3
:1031F000FFF7AEF9C120FFF799F90120FFF7A8F911
:10320000C520FFF793F93020FFF7A2F93020FFF730
:103210009FF9C720FFF78AF9B720FFF799F9362001
:10322000FFF784F94820FFF793F93A20FFF77EF97A
:103230005520FFF78DF9B120FFF778F90020FFF74F
:1032400087F91A20FFF784F9B620FFF76FF90A20F3
:10325000FFF77EF9A220FFF77BF9F220FFF766F96E
:103260000020FFF775F92620FFF760F90120FFF72E
:103270006FF9E020FFF75AF90F20FFF769F92A20CC
:10328000FFF766F92820FFF763F90820FFF760F9D8
:103290000E20FFF75DF90820FFF75AF95420FFF7D9
:1032A00057F9A920FFF754F94320FFF751F90A20F5
:1032B000FFF74EF90F20FFF74BF90020FFF748F911
:1032C0000020FFF745F90020FFF742F90020FFF743
:1032D0003FF9E120FFF72AF90020FFF739F915201F
:1032E000FFF736F91720FFF733F90720FFF730F91A
:1032F0001120FFF72DF90620FFF72AF92B20FFF701
:1033000027F95620FFF724F93C20FFF721F9052083
:10331000FFF71EF91020FFF71BF90F20FFF718F930
:103320003F20FFF715F93F20FFF712F90F20FFF7B5
:103330000FF92B20FFF7FAF80020FFF709F900201A
:10334000FFF706F90120FFF703F93F20FFF700F927
:103350002A20FFF7EBF80020FFF7FAF80020FFF72C
:10336000F7F80020FFF7F4F8EF20FFF7F1F811204D
:10337000FFF7DCF8782003F081FB2920FFF7D6F86F
:103380000020FFF7F9FB01224FF40041584803F0F9
:10339000E5FE4FF6FF70FFF7B5FC02B010BD11203F
:1033A000FFF7C4F8142003F069FBD020FFF7BEF844
:1033B0000720FFF7CDF84220FFF7CAF81D20FFF7DE
:1033C000C7F8D120FFF7B2F80020FFF7C1F81A20A4
:1033D000FFF7BEF80920FFF7BBF8D220FFF7A6F8E9
:1033E0000120FFF7B5F82220FFF7B2F8C020FFF761
:1033F0009DF81020FFF7ACF83B20FFF7A9F800205C
:10340000FFF7A6F80220FFF7A3F81120FFF7A0F8B6
:10341000C520FFF78BF80320FFF79AF8C820FFF7C5
:1034200085F80020FFF794F82520FFF791F8212078
:10343000FFF78EF80520FFF78BF80020FFF788F8DC
:103440000A20FFF785F86520FFF782F82520FFF7AF
:103450007FF87720FFF77CF85020FFF779F80F20EE
:10346000FFF776F80020FFF773F8F820FFF75EF813
:103470000120FFF76DF8FE20FFF758F80020FFF756
:1034800067F80220FFF764F82020FFF74FF8362096
:10349000FFF74CF80820FFF75BF83A20FFF746F8F3
:1034A0005520FFF755F82B20FFF740F80020FFF7D5
:1034B0004FF80020FFF74CF80120FFF749F83F20B4
:1034C000FFF746F82A20FFF731F80020FFF740F811
:1034D0000020FFF73DF80120FFF73AF8DF20FFF763
:1034E00037F8782003F0CAFA2920FFF71FF847E7DA
:1034F00000040240ED20FFF719F80120FFF728F83B
:10350000FE20FFF725F8EE20FFF710F8DE20FFF78A
:103510001FF82120FFF71CF8F120FFF707F8012022
:10352000FFF716F8DF20FFF701F81020FFF710F87B
:10353000C420FEF7FBFF8F20FFF70AF8C620FEF736
:10354000F5FF0020FFF704F8E220FFF701F8E22082
:10355000FEF7FEFFE220FEF7FBFFBF20FEF7E6FFCF
:10356000AA20FEF7F5FFB020FEF7E0FF0D20FEF7E2
:10357000EFFF0020FEF7ECFF0D20FEF7E9FF002033
:10358000FEF7E6FF1120FEF7E3FF0020FEF7E0FF65
:103590001920FEF7DDFF0020FEF7DAFF2120FEF7FD
:1035A000D7FF0020FEF7D4FF2D20FEF7D1FF00202B
:1035B000FEF7CEFF3D20FEF7CBFF0020FEF7C8FF51
:1035C0005D20FEF7C5FF0020FEF7C2FF5D20FEF77D
:1035D000BFFF0020FEF7BCFFB120FEF7A7FF802051
:1035E000FEF7B6FF0020FEF7B3FF8B20FEF7B0FF1B
:1035F0000020FEF7ADFF9620FEF7AAFF0020FEF7A1
:10360000A7FFB220FEF792FF0020FEF7A1FF0020E7
:10361000FEF79EFF0220FEF79BFF0020FEF798FFBB
:103620000320FEF795FF0020FEF792FFB320FEF780
:103630007DFF0020FEF78CFF0020FEF789FF0020B1
:10364000FEF786FF0020FEF783FF0020FEF780FFD5
:103650000020FEF77DFF0020FEF77AFF0020FEF736
:1036600077FF0020FEF774FF0020FEF771FF0020B7
:10367000FEF76EFF0020FEF76BFF0020FEF768FFED
:103680000020FEF765FF0020FEF762FF0020FEF736
:103690005FFF0020FEF75CFF0020FEF759FF0020CF
:1036A000FEF756FF0020FEF753FF0020FEF750FF05
:1036B0000020FEF74DFF0020FEF74AFF0020FEF736
:1036C00047FFB420FEF732FF8B20FEF741FF0020BA
:1036D000FEF73EFF9620FEF73BFF0020FEF738FF87
:1036E000A120FEF735FF0020FEF732FFB520FEF7E0
:1036F0001DFF0220FEF72CFF0020FEF729FF03200C
:10370000FEF726FF0020FEF723FF0420FEF720FF30
:103710000020FEF71DFFB620FEF708FF0020FEF791
:1037200017FF0020FEF714FFB720FEF7FFFE002072
:10373000FEF70EFF0020FEF70BFF3F20FEF708FF0D
:103740000020FEF705FF5E20FEF702FF0020FEF7D7
:10375000FFFE6420FEF7FCFE0020FEF7F9FE8C2041
:10376000FEF7F6FE0020FEF7F3FEAC20FEF7F0FEBB
:103770000020FEF7EDFEDC20FEF7EAFE0020FEF75B
:10378000E7FE7020FEF7E4FE0020FEF7E1FE902049
:10379000FEF7DEFE0020FEF7DBFEEB20FEF7D8FE94
:1037A0000020FEF7D5FEDC20FEF7D2FE0020FEF75B
:1037B000CFFEB820FEF7BAFE0020FEF7C9FE0020BB
:1037C000FEF7C6FE0020FEF7C3FE0020FEF7C0FE97
:1037D0000020FEF7BDFE0020FEF7BAFE0020FEF737
:1037E000B7FE0020FEF7B4FEBA20FEF79FFE2420AD
:1037F000FEF7AEFE0020FEF7ABFE0020FEF7A8FEAF
:103800000020FEF7A5FEC120FEF790FE2020FEF767
:103810009FFE0020FEF79CFE5420FEF799FE00203C
:10382000FEF796FEFF20FEF793FE0020FEF790FEC7
:10383000C220FEF77BFE0A20FEF78AFE0020FEF77C
:1038400087FE0420FEF784FE0020FEF781FEC320E1
:10385000FEF76CFE3C20FEF77BFE0020FEF778FEB4
:103860003A20FEF775FE0020FEF772FE3920FEF7C3
:103870006FFE0020FEF76CFE3720FEF769FE002089
:10388000FEF766FE3C20FEF763FE0020FEF760FEBA
:103890003620FEF75DFE0020FEF75AFE3220FEF7CE
:1038A00057FE0020FEF754FE2F20FEF751FE0020A9
:1038B000FEF74EFE2C20FEF74BFE0020FEF748FEE2
:1038C0002920FEF745FE0020FEF742FE2620FEF7E7
:1038D0003FFE0020FEF73CFE2420FEF739FE0020CC
:1038E000FEF736FE2420FEF733FE0020FEF730FE02
:1038F0002320FEF72DFE0020FEF72AFE3C20FEF7D7
:1039000027FE0020FEF724FE3620FEF721FE0020D1
:10391000FEF71EFE3220FEF71BFE0020FEF718FE0B
:103920002F20FEF715FE0020FEF712FE2C20FEF7DA
:103930000FFE0020FEF70CFE2920FEF709FE0020F6
:10394000FEF706FE2620FEF703FE0020FEF700FE2F
:103950002420FEF7FDFD0020FEF7FAFD2420FEF7EF
:10396000F7FD0020FEF7F4FD2320FEF7F1FD002017
:10397000FEF7EEFDC420FEF7D9FD6220FEF7E8FD5C
:103980000020FEF7E5FD0520FEF7E2FD0020FEF732
:10399000DFFD8420FEF7DCFD0020FEF7D9FDF020DE
:1039A000FEF7D6FD0020FEF7D3FD1820FEF7D0FD70
:1039B0000020FEF7CDFDA420FEF7CAFD0020FEF793
:1039C000C7FD1820FEF7C4FD0020FEF7C1FD502002
:1039D000FEF7BEFD0020FEF7BBFD0C20FEF7B8FD94
:1039E0000020FEF7B5FD1720FEF7B2FD0020FEF720
:1039F000AFFD9520FEF7ACFD0020FEF7A9FDF320FA
:103A0000FEF7A6FD0020FEF7A3FDE620FEF7A0FDD1
:103A10000020FEF79DFDC520FEF788FD3220FEF751
:103A200097FD0020FEF794FD4420FEF791FD002055
:103A3000FEF78EFD6520FEF78BFD0020FEF788FD6A
:103A40007620FEF785FD0020FEF782FD8820FEF738
:103A50007FFD0020FEF77CFDC620FEF767FD2020DD
:103A6000FEF776FD0020FEF773FD1720FEF770FDD0
:103A70000020FEF76DFD0120FEF76AFD0020FEF735
:103A800067FDC720FEF752FD0020FEF761FD002014
:103A9000FEF75EFD0020FEF75BFD0020FEF758FDFF
:103AA000C820FEF743FD0020FEF752FD0020FEF780
:103AB0004FFD0020FEF74CFD0020FEF749FDC92018
:103AC000FEF734FD0020FEF743FD0020FEF740FD29
:103AD0000020FEF73DFD0020FEF73AFD0020FEF736
:103AE00037FD0020FEF734FD0020FEF731FD0020F9
:103AF000FEF72EFD0020FEF72BFD0020FEF728FD2F
:103B00000020FEF725FD0020FEF722FD0020FEF735
:103B10001FFD0020FEF71CFD0020FEF719FD002010
:103B2000FEF716FDE020FEF701FD1620FEF710FD62
:103B30000020FEF70DFD1C20FEF70AFD0020FEF719
:103B400007FD2120FEF704FD0020FEF701FD3620D1
:103B5000FEF7FEFC0020FEF7FBFC4620FEF7F8FC1B
:103B60000020FEF7F5FC5220FEF7F2FC0020FEF7E5
:103B7000EFFC6420FEF7ECFC0020FEF7E9FC7A2065
:103B8000FEF7E6FC0020FEF7E3FC8B20FEF7E0FCEE
:103B90000020FEF7DDFC9920FEF7DAFC0020FEF79E
:103BA000D7FCA820FEF7D4FC0020FEF7D1FCB920FA
:103BB000FEF7CEFC0020FEF7CBFCC420FEF7C8FCCD
:103BC0000020FEF7C5FCCA20FEF7C2FC0020FEF76D
:103BD000BFFCD220FEF7BCFC0020FEF7B9FCD920C8
:103BE000FEF7B6FC0020FEF7B3FCE020FEF7B0FCC9
:103BF0000020FEF7ADFCF320FEF7AAFC0020FEF744
:103C0000A7FCE120FEF792FC1620FEF7A1FC0020A5
:103C1000FEF79EFC1C20FEF79BFC0020FEF798FCA4
:103C20002220FEF795FC0020FEF792FC3620FEF7DE
:103C30008FFC0020FEF78CFC4520FEF789FC00205D
:103C4000FEF786FC5220FEF783FC0020FEF780FC86
:103C50006420FEF77DFC0020FEF77AFC7A20FEF758
:103C600077FC0020FEF774FC8B20FEF771FC00202F
:103C7000FEF76EFC9920FEF76BFC0020FEF768FC57
:103C8000A820FEF765FC0020FEF762FCB920FEF7D5
:103C90005FFC0020FEF75CFCC420FEF759FC00200E
:103CA000FEF756FCCA20FEF753FC0020FEF750FC3E
:103CB000D220FEF74DFC0020FEF74AFCD820FEF78C
:103CC00047FC0020FEF744FCE020FEF741FC00200A
:103CD000FEF73EFCF320FEF73BFC0020FEF738FC2D
:103CE000E220FEF723FC0520FEF732FC0020FEF761
:103CF0002FFC0B20FEF72CFC0020FEF729FC1B20DC
:103D0000FEF726FC0020FEF723FC3420FEF720FC03
:103D10000020FEF71DFC4420FEF71AFC0020FEF7F1
:103D200017FC4F20FEF714FC0020FEF711FC612069
:103D3000FEF70EFC0020FEF70BFC7920FEF708FCD6
:103D40000020FEF705FC8820FEF702FC0020FEF7AD
:103D5000FFFB9720FEF7FCFB0020FEF7F9FBA620F7
:103D6000FEF7F6FB0020FEF7F3FBB720FEF7F0FBB3
:103D70000020FEF7EDFBC220FEF7EAFB0020FEF775
:103D8000E7FBC720FEF7E4FB0020FEF7E1FBD120B4
:103D9000FEF7DEFB0020FEF7DBFBD620FEF7D8FBAC
:103DA0000020FEF7D5FBDD20FEF7D2FB0020FEF75A
:103DB000CFFBF320FEF7CCFB0020FEF7C9FBE3208E
:103DC000FEF7B4FB0520FEF7C3FB0020FEF7C0FBA7
:103DD0000A20FEF7BDFB0020FEF7BAFB1C20FEF711
:103DE000B7FB0020FEF7B4FB3320FEF7B1FB002049
:103DF000FEF7AEFB4420FEF7ABFB0020FEF7A8FB6E
:103E00005020FEF7A5FB0020FEF7A2FB6220FEF784
:103E10009FFB0020FEF79CFB7820FEF799FB00201B
:103E2000FEF796FB8820FEF793FB0020FEF790FB41
:103E30009720FEF78DFB0020FEF78AFBA620FEF7F9
:103E400087FB0020FEF784FBB720FEF781FB0020F4
:103E5000FEF77EFBC220FEF77BFB0020FEF778FB1F
:103E6000C720FEF775FB0020FEF772FBD120FEF79E
:103E70006FFB0020FEF76CFBD520FEF769FB0020EE
:103E8000FEF766FBDD20FEF763FB0020FEF760FB1C
:103E9000F320FEF75DFB0020FEF75AFBE420FEF75F
:103EA00045FB0120FEF754FB0020FEF751FB0120EB
:103EB000FEF74EFB0020FEF74BFB0220FEF748FB0F
:103EC0000020FEF745FB2A20FEF742FB0020FEF70C
:103ED0003FFB3C20FEF73CFB0020FEF739FB4B206C
:103EE000FEF736FB0020FEF733FB5D20FEF730FBCC
:103EF0000020FEF72DFB7420FEF72AFB0020FEF7C2
:103F000027FB8420FEF724FB0020FEF721FB9320F3
:103F1000FEF71EFB0020FEF71BFBA220FEF718FB9E
:103F20000020FEF715FBB320FEF712FB0020FEF782
:103F30000FFBBE20FEF70CFB0020FEF709FBC420A0
:103F4000FEF706FB0020FEF703FBCD20FEF700FB8B
:103F50000020FEF7FDFAD320FEF7FAFA0020FEF764
:103F6000F7FADD20FEF7F4FA0020FEF7F1FAF3206D
:103F7000FEF7EEFA0020FEF7EBFAE520FEF7D6FAA0
:103F80000020FEF7E5FA0020FEF7E2FA0020FEF737
:103F9000DFFA0020FEF7DCFA0220FEF7D9FA002053
:103FA000FEF7D6FA2920FEF7D3FA0020FEF7D0FA62
:103FB0003C20FEF7CDFA0020FEF7CAFA4B20FEF7B0
:103FC000C7FA0020FEF7C4FA5D20FEF7C1FA002010
:103FD000FEF7BEFA7420FEF7BBFA0020FEF7B8FA2F
:103FE0008420FEF7B5FA0020FEF7B2FA9320FEF720
:103FF000AFFA0020FEF7ACFAA220FEF7A9FA0020E3
:10400000FEF7A6FAB320FEF7A3FA0020FEF7A0FA07
:10401000BE20FEF79DFA0020FEF79AFAC420FEF7B4
:1040200097FA0020FEF794FACD20FEF791FA0020CF
:10403000FEF78EFAD320FEF78BFA0020FEF788FAFF
:10404000DC20FEF785FA0020FEF782FAF320FEF767
:104050007FFA0020FEF77CFAE620FEF767FA1120CF
:10406000FEF776FA0020FEF773FA3420FEF770FAB6
:104070000020FEF76DFA5620FEF76AFA0020FEF7E0
:1040800067FA7620FEF764FA0020FEF761FA7720DF
:10409000FEF75EFA0020FEF75BFA6620FEF758FA9C
:1040A0000020FEF755FA8820FEF752FA0020FEF7AE
:1040B0004FFA9920FEF74CFA0020FEF749FABB2090
:1040C000FEF746FA0020FEF743FA9920FEF740FA81
:1040D0000020FEF73DFA6620FEF73AFA0020FEF7D0
:1040E00037FA5520FEF734FA0020FEF731FA552052
:1040F000FEF72EFA0020FEF72BFA4520FEF728FAED
:104100000020FEF725FA4320FEF722FA0020FEF7F2
:104110001FFA4420FEF71CFA0020FEF719FAE720E8
:10412000FEF704FA3220FEF713FA0020FEF710FA29
:104130005520FEF70DFA0020FEF70AFA7620FEF76A
:1041400007FA0020FEF704FA6620FEF701FA0020C5
:10415000FEF7FEF96720FEF7FBF90020FEF7F8F9FD
:104160006720FEF7F5F90020FEF7F2F98720FEF749
:10417000EFF90020FEF7ECF99920FEF7E9F90020AD
:10418000FEF7E6F9BB20FEF7E3F90020FEF7E0F9C1
:104190009920FEF7DDF90020FEF7DAF97720FEF727
:1041A000D7F90020FEF7D4F94420FEF7D1F900201A
:1041B000FEF7CEF95620FEF7CBF90020FEF7C8F93E
:1041C0002320FEF7C5F90020FEF7C2F93320FEF7E1
:1041D000BFF90020FEF7BCF94520FEF7B9F9002031
:1041E000FEF7B6F9E820FEF7A1F90020FEF7B0F9D6
:1041F0000020FEF7ADF99920FEF7AAF90020FEF79E
:10420000A7F98720FEF7A4F90020FEF7A1F988207E
:10421000FEF79EF90020FEF79BF97720FEF798F94C
:104220000020FEF795F96620FEF792F90020FEF7D0
:104230008FF98820FEF78CF90020FEF789F9AA2073
:10424000FEF786F90020FEF783F9BB20FEF780F920
:104250000020FEF77DF99920FEF77AF90020FEF79D
:1042600077F96620FEF774F90020FEF771F9552002
:10427000FEF76EF90020FEF76BF95520FEF768F99E
:104280000020FEF765F94420FEF762F90020FEF7F2
:104290005FF94420FEF75CF90020FEF759F955203C
:1042A000FEF756F90020FEF753F9E920FEF73EF934
:1042B000AA20FEF74DF90020FEF74AF90020FEF78C
:1042C00047F90020FEF744F90020FEF72FF9AA2055
:1042D000FEF73EF9CF20FEF729F90020FEF738F966
:1042E0000020FEF735F90020FEF732F90020FEF736
:1042F0002FF90020FEF72CF90020FEF729F9002005
:10430000FEF726F90020FEF723F90020FEF720F93A
:104310000020FEF71DF90020FEF71AF90020FEF735
:1043200017F90020FEF714F90020FEF711F900201C
:10433000FEF70EF90020FEF70BF90020FEF708F952
:10434000F020FEF7F3F80020FEF702F95020FEF708
:10435000FFF80020FEF7FCF80020FEF7F9F8002037
:10436000FEF7F6F8F320FEF7E1F80020FEF7F0F88C
:10437000F920FEF7DBF80620FEF7EAF81020FEF73A
:10438000E7F82920FEF7E4F80020FEF7E1F83A20EC
:10439000FEF7CCF85520FEF7DBF81120FEF7C6F843
:1043A000642002F06BFB2920FEF7C0F83520FEF7F1
:1043B000BDF80020FEF7CCF85120FEF7B7F8FF203B
:1043C000FEF7C6F85320FEF7B1F82C20FEF7C0F830
:1043D0005520FEF7ABF88220FEF7BAF82C20FEF746
:1043E000A5F8FEF7CDBF55214FF47040FEF7D0F889
:1043F000AA214FF20100FEF7CBF852214FF2020042
:10440000FEF7C6F808214FF20300FEF7C1F80121BC
:104410004FF20400FEF7BCF80D214FF43040FEF7D8
:10442000B7F80D214BF20100FEF7B2F80D214BF267
:104430000200FEF7ADF834214FF43640FEF7A8F83D
:1044400034214BF20160FEF7A3F834214BF20260F5
:10445000FEF79EF80D214FF43140FEF799F80D213B
:104460004BF20110FEF794F80D214BF20210FEF70B
:104470008FF834214FF43740FEF78AF834214BF29D
:104480000170FEF785F834214BF20270FEF780F8D8
:1044900000214FF43240FEF77BF800214BF201205F
:1044A000FEF776F800214BF20220FEF771F8242186
:1044B0004FF43840FEF76CF824214BF60100FEF76C
:1044C00067F824214BF60200FEF762F801214FF451
:1044D0003F40FEF75DF80F214FF43340FEF758F8E8
:1044E0000F214BF20130FEF753F80F214BF202304F
:1044F000FEF74EF834214FF43940FEF749F83421E5
:104500004BF60110FEF744F834214BF60210FEF78B
:104510003FF808214FF43540FEF73AF808214BF2F6
:104520000150FEF735F808214BF20250FEF730F843
:1045300003214FF44240FEF72BF824214FF43A4078
:10454000FEF726F824214BF60120FEF721F824215E
:104550004BF60220FEF71CF800214FF43C40FEF71A
:1045600017F878214BF60140FEF712F800214BF6C0
:104570000240FEF70DF800214FF43D40FEF708F829
:1045800078214BF60150FEF703F800214BF602505C
:10459000FDF7FEFF00214FF43E40FDF7F9FF6421D7
:1045A0004BF60160FDF7F4FF00214FF45140FDF799
:1045B000EFFF33214DF20110FDF7EAFF00214DF22C
:1045C0000210FDF7E5FF34214DF20310FDF7E0FF87
:1045D00000214DF20410FDF7DBFF3A214DF20510EA
:1045E000FDF7D6FF00214DF20610FDF7D1FF4A215D
:1045F0004DF20710FDF7CCFF00214DF20810FDF73A
:10460000C7FF5C214DF20910FDF7C2FF00214DF2FA
:104610000A10FDF7BDFF81214DF20B10FDF7B8FF29
:1046200000214DF20C10FDF7B3FFA6214DF20D1045
:10463000FDF7AEFF00214DF20E10FDF7A9FFE521B9
:104640004DF20F10FDF7A4FF01214DF21010FDF700
:104650009FFF13214DF21110FDF79AFF01214DF23A
:104660001210FDF795FF54214DF21310FDF790FF46
:1046700001214DF21410FDF78BFF82214DF2151030
:10468000FDF786FF01214DF21610FDF781FFCA21CB
:104690004DF21710FDF77CFF02214DF21810FDF7C7
:1046A00077FF00214DF21910FDF772FF02214DF244
:1046B0001A10FDF76DFF01214DF21B10FDF768FF89
:1046C00002214DF21C10FDF763FF34214DF21D1045
:1046D000FDF75EFF02214DF21E10FDF759FF672125
:1046E0004DF21F10FDF754FF02214DF22010FDF78F
:1046F0004FFF84214DF22110FDF74AFF02214DF2B8
:104700002210FDF745FFA4214DF22310FDF740FFD5
:1047100002214DF22410FDF73BFFB7214DF2251089
:10472000FDF736FF02214DF22610FDF731FFCF21B4
:104730004DF22710FDF72CFF02214DF22810FDF756
:1047400027FFDE214DF22910FDF722FF02214DF255
:104750002A10FDF71DFFF2214DF22B10FDF718FF77
:1047600002214DF22C10FDF713FFFE214DF22D100A
:10477000FDF70EFF03214DF22E10FDF709FF10216A
:104780004DF22F10FDF704FF03214DF23010FDF71D
:10479000FFFE33214DF23110FDF7FAFE03214DF2F9
:1047A0003210FDF7F5FE6D214DF23310FDF7F0FEEE
:1047B00000214FF45240FDF7EBFE33214DF2012072
:1047C000FDF7E6FE00214DF20220FDF7E1FE342167
:1047D0004DF20320FDF7DCFE00214DF20420FDF731
:1047E000D7FE3A214DF20520FDF7D2FE00214DF211
:1047F0000620FDF7CDFE4A214DF20720FDF7C8FE49
:1048000000214DF20820FDF7C3FE5C214DF2092086
:10481000FDF7BEFE00214DF20A20FDF7B9FE812111
:104820004DF20B20FDF7B4FE00214DF20C20FDF7F8
:10483000AFFEA6214DF20D20FDF7AAFE00214DF29C
:104840000E20FDF7A5FEE5214DF20F20FDF7A0FE9D
:1048500001214DF21020FDF79BFE13214DF2112096
:10486000FDF796FE01214DF21220FDF791FE542135
:104870004DF21320FDF78CFE01214DF21420FDF7BF
:1048800087FE82214DF21520FDF782FE01214DF2B7
:104890001620FDF77DFECA214DF21720FDF778FEA8
:1048A00002214DF21820FDF773FE00214DF2192070
:1048B000FDF76EFE02214DF21A20FDF769FE01217F
:1048C0004DF21B20FDF764FE02214DF21C20FDF786
:1048D0005FFE34214DF21D20FDF75AFE02214DF2FC
:1048E0001E20FDF755FE67214DF21F20FDF750FEFB
:1048F00002214DF22020FDF74BFE84214DF22120B4
:10490000FDF746FE02214DF22220FDF741FEA421D3
:104910004DF22320FDF73CFE02214DF22420FDF74D
:1049200037FEB7214DF22520FDF732FE02214DF270
:104930002620FDF72DFECF214DF22720FDF728FE82
:1049400002214DF22820FDF723FEDE214DF2292021
:10495000FDF71EFE02214DF22A20FDF719FEF2217D
:104960004DF22B20FDF714FE02214DF22C20FDF715
:104970000FFEFE214DF22D20FDF70AFE03214DF220
:104980002E20FDF705FE10214DF22F20FDF700FE31
:1049900003214DF23020FDF7FBFD33214DF2312094
:1049A000FDF7F6FD03214DF23220FDF7F1FD6D21FB
:1049B0004DF23320FDF7ECFD00214FF45340FDF79D
:1049C000E7FD33214DF20130FDF7E2FD00214DF20C
:1049D0000230FDF7DDFD34214DF20330FDF7D8FD47
:1049E00000214DF20430FDF7D3FD3A214DF20530A0
:1049F000FDF7CEFD00214DF20630FDF7C9FD4A213D
:104A00004DF20730FDF7C4FD00214DF20830FDF7EF
:104A1000BFFD5C214DF20930FDF7BAFD00214DF2DA
:104A20000A30FDF7B5FD81214DF20B30FDF7B0FDE9
:104A300000214DF20C30FDF7ABFDA6214DF20D30FB
:104A4000FDF7A6FD00214DF20E30FDF7A1FDE52199
:104A50004DF20F30FDF79CFD01214DF21030FDF7B6
:104A600097FD13214DF21130FDF792FD01214DF21A
:104A70001230FDF78DFD54214DF21330FDF788FD06
:104A800001214DF21430FDF783FD82214DF21530E6
:104A9000FDF77EFD01214DF21630FDF779FDCA21AB
:104AA0004DF21730FDF774FD02214DF21830FDF77D
:104AB0006FFD00214DF21930FDF76AFD02214DF224
:104AC0001A30FDF765FD01214DF21B30FDF760FD49
:104AD00002214DF21C30FDF75BFD34214DF21D30FB
:104AE000FDF756FD02214DF21E30FDF751FD672105
:104AF0004DF21F30FDF74CFD02214DF22030FDF745
:104B000047FD84214DF22130FDF742FD02214DF297
:104B10002230FDF73DFDA4214DF22330FDF738FD95
:104B200002214DF22430FDF733FDB7214DF225303F
:104B3000FDF72EFD02214DF22630FDF729FDCF2194
:104B40004DF22730FDF724FD02214DF22830FDF70C
:104B50001FFDDE214DF22930FDF71AFD02214DF235
:104B60002A30FDF715FDF2214DF22B30FDF710FD37
:104B700002214DF22C30FDF70BFDFE214DF22D30C0
:104B8000FDF706FD03214DF22E30FDF701FD10214A
:104B90004DF22F30FDF7FCFC03214DF23030FDF7D4
:104BA000F7FC33214DF23130FDF7F2FC03214DF2D9
:104BB0003230FDF7EDFC6D214DF23330FDF7E8FCAE
:104BC00000214FF45440FDF7E3FC33214DF2014046
:104BD000FDF7DEFC00214DF20240FDF7D9FC342147
:104BE0004DF20340FDF7D4FC00214DF20440FDF7E7
:104BF000CFFC3A214DF20540FDF7CAFC00214DF2F1
:104C00000640FDF7C5FC4A214DF20740FDF7C0FC08
:104C100000214DF20840FDF7BBFC5C214DF209403C
:104C2000FDF7B6FC00214DF20A40FDF7B1FC8121F1
:104C30004DF20B40FDF7ACFC00214DF20C40FDF7AE
:104C4000A7FCA6214DF20D40FDF7A2FC00214DF27C
:104C50000E40FDF79DFCE5214DF20F40FDF798FC5D
:104C600001214DF21040FDF793FC13214DF211404C
:104C7000FDF78EFC01214DF21240FDF789FC542115
:104C80004DF21340FDF784FC01214DF21440FDF775
:104C90007FFC82214DF21540FDF77AFC01214DF297
:104CA0001640FDF775FCCA214DF21740FDF770FC68
:104CB00002214DF21840FDF76BFC00214DF2194026
:104CC000FDF766FC02214DF21A40FDF761FC01215F
:104CD0004DF21B40FDF75CFC02214DF21C40FDF73C
:104CE00057FC34214DF21D40FDF752FC02214DF2DC
:104CF0001E40FDF74DFC67214DF21F40FDF748FCBB
:104D000002214DF22040FDF743FC84214DF2214069
:104D1000FDF73EFC02214DF22240FDF739FCA421B3
:104D20004DF22340FDF734FC02214DF22440FDF703
:104D30002FFCB7214DF22540FDF72AFC02214DF250
:104D40002640FDF725FCCF214DF22740FDF720FC42
:104D500002214DF22840FDF71BFCDE214DF22940D7
:104D6000FDF716FC02214DF22A40FDF711FCF2215D
:104D70004DF22B40FDF70CFC02214DF22C40FDF7CB
:104D800007FCFE214DF22D40FDF702FC03214DF200
:104D90002E40FDF7FDFB10214DF22F40FDF7F8FBF3
:104DA00003214DF23040FDF7F3FB33214DF231404A
:104DB000FDF7EEFB03214DF23240FDF7E9FB6D21DB
:104DC0004DF23340FDF7E4FB00214FF45540FDF771
:104DD000DFFB33214DF20150FDF7DAFB00214DF2EC
:104DE0000250FDF7D5FB34214DF20350FDF7D0FB07
:104DF00000214DF20450FDF7CBFB3A214DF2055056
:104E0000FDF7C6FB00214DF20650FDF7C1FB4A211C
:104E10004DF20750FDF7BCFB00214DF20850FDF7A5
:104E2000B7FB5C214DF20950FDF7B2FB00214DF2BA
:104E30000A50FDF7ADFB81214DF20B50FDF7A8FBA9
:104E400000214DF20C50FDF7A3FBA6214DF20D50B1
:104E5000FDF79EFB00214DF20E50FDF799FBE52179
:104E60004DF20F50FDF794FB01214DF21050FDF76C
:104E70008FFB13214DF21150FDF78AFB01214DF2FA
:104E80001250FDF785FB54214DF21350FDF780FBC6
:104E900001214DF21450FDF77BFB82214DF215509C
:104EA000FDF776FB01214DF21650FDF771FBCA218B
:104EB0004DF21750FDF76CFB02214DF21850FDF733
:104EC00067FB00214DF21950FDF762FB02214DF204
:104ED0001A50FDF75DFB01214DF21B50FDF758FB09
:104EE00002214DF21C50FDF753FB34214DF21D50B1
:104EF000FDF74EFB02214DF21E50FDF749FB6721E5
:104F00004DF21F50FDF744FB02214DF22050FDF7FA
:104F10003FFB84214DF22150FDF73AFB02214DF277
:104F20002250FDF735FBA4214DF22350FDF730FB55
:104F300002214DF22450FDF72BFBB7214DF22550F5
:104F4000FDF726FB02214DF22650FDF721FBCF2174
:104F50004DF22750FDF71CFB02214DF22850FDF7C2
:104F600017FBDE214DF22950FDF712FB02214DF215
:104F70002A50FDF70DFBF2214DF22B50FDF708FBF7
:104F800002214DF22C50FDF703FBFE214DF22D5076
:104F9000FDF7FEFA03214DF22E50FDF7F9FA10212C
:104FA0004DF22F50FDF7F4FA03214DF23050FDF78A
:104FB000EFFA33214DF23150FDF7EAFA03214DF2B9
:104FC0003250FDF7E5FA6D214DF23350FDF7E0FA6E
:104FD00000214FF45640FDF7DBFA33214DF201601A
:104FE000FDF7D6FA00214DF20260FDF7D1FA342127
:104FF0004DF20360FDF7CCFA00214DF20460FDF79D
:10500000C7FA3A214DF20560FDF7C2FA00214DF2D0
:105010000660FDF7BDFA4A214DF20760FDF7B8FAC8
:1050200000214DF20860FDF7B3FA5C214DF20960F2
:10503000FDF7AEFA00214DF20A60FDF7A9FA8121D1
:105040004DF20B60FDF7A4FA00214DF20C60FDF764
:105050009FFAA6214DF20D60FDF79AFA00214DF25C
:105060000E60FDF795FAE5214DF20F60FDF790FA1D
:1050700001214DF21060FDF78BFA13214DF2116002
:10508000FDF786FA01214DF21260FDF781FA5421F5
:105090004DF21360FDF77CFA01214DF21460FDF72B
:1050A00077FA82214DF21560FDF772FA01214DF277
:1050B0001660FDF76DFACA214DF21760FDF768FA28
:1050C00002214DF21860FDF763FA00214DF21960DC
:1050D000FDF75EFA02214DF21A60FDF759FA01213F
:1050E0004DF21B60FDF754FA02214DF21C60FDF7F2
:1050F0004FFA34214DF21D60FDF74AFA02214DF2BC
:105100001E60FDF745FA67214DF21F60FDF740FA7A
:1051100002214DF22060FDF73BFA84214DF221601F
:10512000FDF736FA02214DF22260FDF731FAA42193
:105130004DF22360FDF72CFA02214DF22460FDF7B9
:1051400027FAB7214DF22560FDF722FA02214DF230
:105150002660FDF71DFACF214DF22760FDF718FA02
:1051600002214DF22860FDF713FADE214DF229608D
:10517000FDF70EFA02214DF22A60FDF709FAF2213D
:105180004DF22B60FDF704FA02214DF22C60FDF781
:10519000FFF9FE214DF22D60FDF7FAF903214DF2E2
:1051A0002E60FDF7F5F910214DF22F60FDF7F0F9B3
:1051B00003214DF23060FDF7EBF933214DF2316000
:1051C000FDF7E6F903214DF23260FDF7E1F96D21BB
:1051D0004DF23360FDF7DCF955214FF47040FDF7D7
:1051E000D7F9AA214FF20100FDF7D2F952214FF26F
:1051F0000200FDF7CDF908214FF20300FDF7C8F9D1
:1052000000214FF20400FDF7C3F9CC214FF43140E7
:10521000FDF7BEF900214BF20110FDF7B9F90521A8
:105220004FF43640FDF7B4F970214FF43740FDF7E5
:10523000AFF970214BF20170FDF7AAF901214FF48B
:105240003840FDF7A5F903214BF60100FDF7A0F961
:1052500003214BF60200FDF79BF903214BF60300F7
:10526000FDF796F902214FF43C40FDF791F900213A
:105270004BF60140FDF78CF900214BF60240FDF79B
:1052800087F9D0214FF44940FDF782F902214CF60D
:105290000110FDF77DF950214CF60210FDF778F969
:1052A00050214CF60310FDF773F950214CF6041011
:1052B000FDF76EF900214FF45450FDF769F95521BF
:1052C0004FF46850FDF764F94FF48850FDF72EF95C
:1052D000782001F077FA4FF42450FDF727F9FEF714
:1052E0004FB847F6F001E520FDF752F94FF4807111
:1052F0000120FDF74DF94FF4E0610220FDF748F978
:1053000041F230010320FDF743F900210420FDF7AD
:105310003FF940F202210820FDF73AF90021092067
:10532000FDF736F900210A20FDF732F900210C20A3
:10533000FDF72EF900210D20FDF72AF900210F209D
:10534000FDF726F900211020FDF722F90721112091
:10535000FDF71EF900211220FDF71AF90021132094
:10536000FDF716F900210720FDF712F941F29061CF
:105370001020FDF70DF940F227211120FDF708F963
:105380009D211220FDF704F94FF4C8511320FDF7B9
:10539000FFF825212920FDF7FBF80D212B20FDF733
:1053A000F7F807213020FDF7F3F840F20331312000
:1053B000FDF7EEF803213220FDF7EAF840F206216E
:1053C0003520FDF7E5F808213620FDF7E1F840F239
:1053D00006413720FDF7DCF84FF441713820FDF726
:1053E000D7F807213920FDF7D3F840F202613C20BD
:1053F000FDF7CEF808213D20FDF7CAF80021502026
:10540000FDF7C6F8EF215120FDF7C2F80021522028
:10541000FDF7BEF840F23F115320FDF7B9F84FF405
:1054200027416020FDF7B4F801216120FDF7B0F8B5
:1054300000216A20FDF7ACF800218020FDF7A8F8D4
:1054400000218120FDF7A4F800218220FDF7A0F8BB
:1054500000218320FDF79CF800218420FDF798F8B7
:1054600000218520FDF794F810219020FDF790F899
:105470004FF4C0619220FDF78BF840F23311072002
:10548000FDF786F822210020FDF782F8FDF778BFAE
:1054900041F28F01EC20FDF77BF841F23421EF203F
:1054A000FDF776F84FF480710120FDF771F84FF4A5
:1054B000E0610220FDF76CF841F230010320FDF7B6
:1054C00067F800210420FDF763F840F2022108206C
:1054D000FDF75EF800210920FDF75AF800210A20A7
:1054E000FDF756F801210C20FDF752F800210D20A0
:1054F000FDF74EF800210F20FDF74AF8002110209B
:10550000FDF746F807211120FDF742F8002112208F
:10551000FDF73EF800211320FDF73AF8012107209E
:10552000FDF736F8322001F0A9FA41F2904110203F
:10553000FDF72EF840F227211120FDF729F832203F
:1055400001F09CFA8A211220FDF722F8322001F0A6
:1055500095FA4FF4D0511320FDF71AF806212920AF
:10556000FDF716F80D212B20FDF712F8322001F07F
:1055700085FA00212020FDF70BF800212120FDF7FE
:1055800007F8322001F07AFA00213020FDF700F808
:1055900040F204613120FCF7FBFF40F2053132207C
:1055A000FCF7F6FF00213520FCF7F2FF40F6094139
:1055B0003620FCF7EDFF4FF401713720FCF7E8FFD0
:1055C00040F201313820FCF7E3FF40F20771392047
:1055D000FCF7DEFF00213C20FCF7DAFF40F60A2151
:1055E0003D20FCF7D5FF322001F048FA0021502081
:1055F000FCF7CEFFEF215120FCF7CAFF002152201B
:10560000FCF7C6FF40F23F115320FCF7C1FF4FF4F7
:1056100027416020FCF7BCFF01216120FCF7B8FFA7
:1056200000216A20FCF7B4FF00218020FCF7B0FFC6
:1056300000218120FCF7ACFF00218220FCF7A8FFAD
:1056400000218320FCF7A4FF00218420FCF7A0FFA9
:1056500000218520FCF79CFF10219020FCF798FF8B
:105660004FF4C0619220FCF793FF40F23311072002
:10567000FCF78EFFFDF784BE00210846FCF788FF8B
:105680004FF480710120FCF783FF4FF4E0610220AA
:10569000FCF77EFF41F230010320FCF779FF002187
:1056A0000420FCF775FF40F202210820FCF770FF90
:1056B00000210920FCF76CFF00210A20FCF768FF9D
:1056C00001210C20FCF764FF00210D20FCF760FF96
:1056D00000210F20FCF75CFF322001F0CFF940F2EF
:1056E00001110720FCF754FF322001F0C7F94FF4F5
:1056F00086511020FCF74CFF07211120FCF748FFD2
:105700004FF488711220FCF743FF4FF430611320EF
:10571000FCF73EFF00212920FCF73AFF44F210017C
:105720002B20FCF735FF00215020FCF731FFEF2143
:105730005120FCF72DFF00215220FCF729FF40F2F9
:105740003F115320FCF724FF4FF41C516020FCF75D
:105750001FFF01216120FCF71BFF00216A20FCF7DD
:1057600017FF00218020FCF713FF00218120FCF7A8
:105770000FFF00218220FCF70BFF00218320FCF7A4
:1057800007FF00218420FCF703FF00218520FCF7A0
:10579000FFFE10219020FCF7FBFE00219220FCF779
:1057A000F7FE01219320FCF7F3FE4FF4887195205A
:1057B000FCF7EEFE00219720FCF7EAFE002198207E
:1057C000FCF7E6FE40F273110720FCF7E1FEFDF75F
:1057D000D7BD41F21401E720FCF7DAFE4FF48071E7
:1057E0000120FCF7D5FE4FF400710220FCF7D0FE3B
:1057F00041F238010320FCF7CBFE40F202210820E1
:10580000FCF7C6FE00210920FCF7C2FE00210A2099
:10581000FCF7BEFE00210C20FCF7BAFE00210D2093
:10582000FCF7B6FE00210F20FCF7B2FE002110208D
:10583000FCF7AEFE07211120FCF7AAFE0021122082
:10584000FCF7A6FE00211320FCF7A2FEC82001F001
:1058500015F941F290611020FCF79AFE40F22721E1
:105860001120FCF795FE322001F008F90C211220DE
:10587000FCF78EFE322001F001F94FF40061132095
:10588000FCF786FE11212920FCF782FE0B212B203C
:10589000FCF77EFE322001F0F1F800212020FCF719
:1058A00077FE40F23F112120FCF772FE00213020EC
:1058B000FCF76EFE4FF483713120FCF769FE002186
:1058C0003220FCF765FE4FF401713520FCF760FED5
:1058D00041F20A613620FCF75BFE40F20771372087
:1058E000FCF756FE4FF483713820FCF751FE40F26E
:1058F00007713920FCF74CFE40F202413C20FCF7D6
:1059000047FE40F60F413D20FCF742FE00215020AB
:10591000FCF73EFEEF215120FCF73AFE0021522019
:10592000FCF736FE40F23F115320FCF731FE4FF4F6
:105930001C516020FCF72CFE01216120FCF728FEA1
:1059400000216A20FCF724FE00218020FCF720FEC5
:1059500000218120FCF71CFE00218220FCF718FEAC
:1059600000218320FCF714FE00218420FCF710FEA8
:1059700000218520FCF70CFE10219020FCF708FE8A
:105980004FF4C0619220FCF703FE40F23311072070
:10599000FCF7FEFDFDF7F4BC4FF480710120FCF72D
:1059A000F7FD4FF4E0610220FCF7F2FD41F2300117
:1059B0000320FCF7EDFD00210420FCF7E9FD40F297
:1059C00007210820FCF7E4FD00210920FCF7E0FD99
:1059D00000210A20FCF7DCFD00210C20FCF7D8FD9B
:1059E00000210D20FCF7D4FD00210F20FCF7D0FD95
:1059F000142001F043F841F2B0611020FCF7C8FD1B
:105A000001211120FCF7C4FD01211720FCF7C0FD86
:105A10004FF49C711220FCF7BBFD4FF40061132082
:105A2000FCF7B6FD09212920FCF7B2FD09212A2047
:105A3000FCF7AEFD0021A420FCF7AAFD00215020B8
:105A4000FCF7A6FDEF215120FCF7A2FD002152201A
:105A5000FCF79EFD40F23F115320FCF799FD4FF4F7
:105A60001C516020FCF794FD01216120FCF790FDA2
:105A700000216A20FCF78CFD00218020FCF788FDC6
:105A800000218120FCF784FD00218220FCF780FDAD
:105A900000218320FCF77CFD00218420FCF778FDA9
:105AA00000218520FCF774FD13219020FCF770FD88
:105AB00000219220FCF76CFD03219320FCF768FD88
:105AC0004FF488719520FCF763FD40F273110720B5
:105AD000FCF75EFD322000F0D1FFFDF751BC002144
:105AE0000720FCF755FD322000F0C8FF4FF48E71FF
:105AF0001220FCF74DFD0121A420FCF749FD0F21E8
:105B00000820FCF745FD08210A20FCF741FD08218B
