:020000040800F2
:1000000000000220D96C00086169000863690008DB
:100010006569000867690008696900080000000058
:100020000000000000000000000000006B690008F4
:100030006D690008000000006F6900087169000820
:10004000296D0008296D0008296D0008296D000838
:10005000296D0008296D0008296D0008296D000828
:10006000296D0008296D0008296D0008296D000818
:10007000296D0008296D0008296D0008296D000808
:10008000296D0008296D0008296D0008296D0008F8
:10009000296D0008296D0008296D0008296D0008E8
:1000A000296D000879690008296D0008296D00088C
:1000B000296D0008296D0008296D0008296D0008C8
:1000C000296D0008296D0008296D0008296D0008B8
:1000D000296D000881690008296D0008296D000854
:1000E000296D0008296D0008296D0008296D000898
:1000F000296D0008296D0008296D0008296D000888
:10010000296D0008296D0008296D0008296D000877
:10011000296D0008296D0008296D0008296D000867
:1001200091690008296D0008A1690008296D00087F
:10013000296D0008296D0008296D0008296D000847
:10014000296D0008296D0008296D0008296D000837
:10015000296D0008296D0008B1690008296D0008A3
:10016000296D0008296D0008296D0008296D000817
:10017000296D0008296D0008296D000800000000A5
:08018000296D0008296D00083B
:1001C00010B5054C237833B9044B13B10448AFF391
:1001D00000800123237010BDD8090020000000001A
:1001E0004CE5000808B5034B1BB103490348AFF3C6
:1001F000008008BD00000000DC0900204CE500087C
:1002000081F0004102E000BF83F0004330B54FEAC7
:1002100041044FEA430594EA050F08BF90EA020F34
:100220001FBF54EA000C55EA020C7FEA645C7FEAC7
:10023000655C00F0E2804FEA5454D4EB5555B8BFEA
:100240006D420CDD2C4480EA020281EA030382EA5B
:10025000000083EA010180EA020281EA0303362DED
:1002600088BF30BD11F0004F4FEA01314FF4801CC0
:100270004CEA113102D0404261EB410113F0004FD2
:100280004FEA03334CEA133302D0524263EB430389
:1002900094EA050F00F0A780A4F10104D5F1200E27
:1002A0000DDB02FA0EFC22FA05F2801841F1000182
:1002B00003FA0EF2801843FA05F359410EE0A5F156
:1002C00020050EF1200E012A03FA0EFC28BF4CF087
:1002D000020C43FA05F3C01851EBE37101F000453D
:1002E00007D54FF0000EDCF1000C7EEB00006EEB4A
:1002F0000101B1F5801F1BD3B1F5001F0CD34908D4
:100300005FEA30004FEA3C0C04F101044FEA44522A
:1003100012F5800F80F09A80BCF1004F08BF5FEAB1
:10032000500C50F1000041EB045141EA050130BD91
:100330005FEA4C0C404141EB0101013C28BFB1F5A3
:10034000801FE9D291F0000F04BF01460020B1FAEE
:1003500081F308BF2033A3F10B03B3F120020CDAC1
:100360000C3208DD02F1140CC2F10C0201FA0CF09F
:1003700021FA02F10CE002F11402D8BFC2F1200C04
:1003800001FA02F120FA0CFCDCBF41EA0C019040BA
:10039000E41AA2BF01EB0451294330BD6FEA040403
:1003A0001F3C1CDA0C340EDC04F11404C4F12002EE
:1003B00020FA04F001FA02F340EA030021FA04F300
:1003C00045EA030130BDC4F10C04C4F1200220FA57
:1003D00002F001FA04F340EA0300294630BD21FA95
:1003E00004F0294630BD94F0000F83F4801306BF5B
:1003F00081F480110134013D4EE77FEA645C18BF4F
:100400007FEA655C29D094EA050F08BF90EA020FE5
:1004100005D054EA000C04BF1946104630BD91EADD
:10042000030F1EBF0021002030BD5FEA545C05D1E0
:100430004000494128BF41F0004130BD14F580041F
:100440003CBF01F5801130BD01F0004545F0FE4193
:1004500041F470014FF0000030BD7FEA645C1ABFC8
:10046000194610467FEA655C1CBF0B46024650EAFF
:10047000013406BF52EA033591EA030F41F400212B
:1004800030BD00BF90F0000F04BF0021704730B5B1
:100490004FF4806404F132044FF000054FF0000186
:1004A00050E700BF90F0000F04BF0021704730B547
:1004B0004FF4806404F1320410F0004548BF40421C
:1004C0004FF000013EE700BF42004FEAE2014FEA71
:1004D00031014FEA02701FBF12F07F4393F07F4F4C
:1004E00081F06051704732F07F4208BF704793F04F
:1004F0007F4F04BF41F40021704730B54FF4607462
:1005000001F0004521F000411CE700BF50EA010264
:1005100008BF704730B54FF000050AE050EA01020D
:1005200008BF704730B511F0004502D5404261EB7D
:1005300041014FF4806404F132045FEA915C3FF4BE
:10054000D8AE4FF003025FEADC0C18BF03325FEA5B
:10055000DC0C18BF033202EBDC02C2F1200300FA0C
:1005600003FC20FA02F001FA03FE40EA0E0021FA31
:1005700002F11444BDE600BF4A0011D212F5001288
:1005800011D20DD56FF47873B3EB62520ED44FEAEB
:10059000C12343F0004343EA505323FA02F070476B
:1005A0004FF00000704750EA013002D14FF0FF30A9
:1005B00070474FF00000704780F0004002E000BF3D
:1005C00081F0004142001FBF5FEA410392EA030F3E
:1005D0007FEA226C7FEA236C6AD04FEA1262D2EB88
:1005E0001363C1BFD218414048404140B8BF5B428D
:1005F000192B88BF704710F0004F40F4000020F026
:100600007F4018BF404211F0004F41F4000121F03B
:100610007F4118BF494292EA030F3FD0A2F1010285
:1006200041FA03FC10EB0C00C3F1200301FA03F1C3
:1006300000F0004302D5494260EB4000B0F5000FE6
:1006400013D3B0F1807F06D340084FEA310102F1A5
:100650000102FE2A51D2B1F1004F40EBC25008BF57
:1006600020F0010040EA03007047490040EB000021
:10067000013A28BFB0F5000FEDD2B0FA80FCACF122
:10068000080CB2EB0C0200FA0CF0AABF00EBC2504F
:1006900052421843BCBFD0401843704792F0000F3D
:1006A00081F4000106BF80F400000132013BB5E790
:1006B0004FEA41037FEA226C18BF7FEA236C21D006
:1006C00092EA030F04D092F0000F08BF084670476B
:1006D00090EA010F1CBF0020704712F07F4F04D139
:1006E000400028BF40F00040704712F100723CBF4C
:1006F00000F50000704700F0004343F0FE4040F476
:10070000000070477FEA226216BF08467FEA236333
:100710000146420206BF5FEA412390EA010F40F41E
:10072000800070474FF0000304E000BF10F000436A
:1007300048BF40425FEA000C08BF704743F0964351
:1007400001464FF000001CE050EA010208BF70476C
:100750004FF000030AE000BF50EA010208BF7047F3
:1007600011F0004302D5404261EB41015FEA010C08
:1007700002BF84460146002043F0B64308BFA3F100
:100780008053A3F50003BCFA8CF2083AA3EBC253E2
:1007900010DB01FA02FC634400FA02FCC2F1200201
:1007A000BCF1004F20FA02F243EB020008BF20F038
:1007B0000100704702F1200201FA02FCC2F120029E
:1007C00050EA4C0021FA02F243EB020008BF20EA93
:1007D000DC7070474FF0FF0C1CEAD0521EBF1CEAC1
:1007E000D15392EA0C0F93EA0C0F6FD01A4480EAAF
:1007F000010C400218BF5FEA41211ED04FF0006398
:1008000043EA501043EA5111A0FB01310CF00040C3
:10081000B1F5000F3EBF490041EAD3715B0040EAE9
:10082000010062F17F02FD2A1DD8B3F1004F40EBB9
:10083000C25008BF20F00100704790F0000F0CF08C
:10084000004C08BF49024CEA502040EA51207F3A50
:10085000C2BFD2F1FF0340EAC250704740F400002B
:100860004FF00003013A5DDC12F1190FDCBF00F01C
:1008700000407047C2F10002410021FA02F1C2F1CA
:10088000200200FA02FC5FEA310040F1000053EA66
:100890004C0308BF20EADC70704792F0000F00F0B4
:1008A000004C02BF400010F4000F013AF9D040EABA
:1008B0000C0093F0000F01F0004C02BF490011F44E
:1008C000000F013BF9D041EA0C018FE70CEAD1534C
:1008D00092EA0C0F18BF93EA0C0F0AD030F0004CCC
:1008E00018BF31F0004CD8D180EA010000F0004080
:1008F000704790F0000F17BF90F0004F084691F03E
:10090000000F91F0004F14D092EA0C0F01D1420277
:100910000FD193EA0C0F03D14B0218BF084608D140
:1009200080EA010000F0004040F0FE4040F400008A
:10093000704740F0FE4040F4400070474FF0FF0C1D
:100940001CEAD0521EBF1CEAD15392EA0C0F93EA64
:100950000C0F69D0A2EB030280EA010C49024FEAB6
:10096000402037D04FF0805343EA111143EA10136F
:100970000CF000408B4238BF5B0042F17D024FF427
:10098000000C8B4224BF5B1A40EA0C00B3EB510F02
:1009900024BFA3EB510340EA5C00B3EB910F24BFEB
:1009A000A3EB910340EA9C00B3EBD10F24BFA3EB70
:1009B000D10340EADC001B0118BF5FEA1C1CE0D138
:1009C000FD2A3FF650AF8B4240EBC25008BF20F0EB
:1009D000010070470CF0004C4CEA50207F32C2BF3F
:1009E000D2F1FF0340EAC250704740F400004FF0DC
:1009F0000003013A37E792F0000F00F0004C02BF0D
:100A0000400010F4000F013AF9D040EA0C0093F0D6
:100A1000000F01F0004C02BF490011F4000F013B30
:100A2000F9D041EA0C0195E70CEAD15392EA0C0F98
:100A300008D142027FF47DAF93EA0C0F7FF470AFD0
:100A4000084676E793EA0C0F04D14B023FF44CAF13
:100A500008466EE730F0004C18BF31F0004CCAD1A8
:100A600030F000427FF45CAF31F000437FF43CAFE4
:100A70005FE700BF53B94AB9002908BF00281CBF6F
:100A80004FF0FF314FF0FF3001F0BEB8ADF1080C70
:100A90006DE904CE00F006F8DDF804E0DDE902239C
:100AA00004B070472DE9F047089E0D4604468E4677
:100AB000002B40F082808A42174646D9B2FA82F271
:100AC0004AB1C2F1200105FA02F320FA01F1974080
:100AD00041EA030E94404FEA1748230CBEFBF8FC92
:100AE000B9B208FB1CEE43EA0E430CFB01F098423E
:100AF0000AD9FB180CF1FF3580F01681984240F2BC
:100B00001381ACF1020C3B441B1AA4B2B3FBF8F006
:100B100008FB103344EA034400FB01F1A14209D968
:100B20003C1900F1FF3380F00181A14240F2FE80C8
:100B300002383C44641A40EA0C4000211EB1D44003
:100B40000023C6E90043BDE8F08702B9FFDEB2FA30
:100B500082F2002A4FD1CB1B4FEA174E1FFA87F8BB
:100B60000121B3FBFEFC250C0EFB1C3345EA0345BB
:100B700008FB0CF3AB4207D97D190CF1FF3002D210
:100B8000AB4200F2E7808446ED1AA3B2B5FBFEF05B
:100B90000EFB105543EA054408FB00F8A04507D9B1
:100BA0003C1900F1FF3302D2A04500F2D78018466D
:100BB000A4EB080440EA0C40C0E78B4208D9002EA1
:100BC00000F0AF800021C6E900050846BDE8F087C7
:100BD000B3FA83F100294BD1AB4202D3824200F237
:100BE000B780841A65EB030301209E46002EAAD02D
:100BF000C6E9004EA7E7C2F1200C01FA02F39740C4
:100C000020FA0CF04FEA174E21FA0CFC1843BCFBFB
:100C1000FEF1050C0EFB11CC1FFA87F845EA0C45D6
:100C200001FB08F3AB4204FA02F409D97D1901F182
:100C3000FF3C80F08B80AB4240F2888002393D441B
:100C4000EB1A85B2B3FBFEF00EFB103345EA034509
:100C500000FB08F3AB4207D97D1900F1FF3C71D2CC
:100C6000AB426FD902383D44EB1A40EA014178E7C4
:100C7000C1F1200C8B4022FA0CF71F4320FA0CF430
:100C800005FA01F34FEA174E25FA0CF51C43230C25
:100C9000B5FBFEF91FFA87F80EFB195543EA054527
:100CA00009FB08FAAA4502FA01F200FA01F308D991
:100CB0007D1909F1FF3047D2AA4545D9A9F10209AA
:100CC0003D44A5EB0A05A4B2B5FBFEF00EFB1055A2
:100CD00044EA054400FB08F8A04507D93C1900F197
:100CE000FF352DD2A0452BD902383C4440EA0940BB
:100CF000A4EB0804A0FB02894C45C6464D4619D317
:100D000016D05EB1B3EB0E0264EB050404FA0CFCE2
:100D1000CA404CEA0202CC40C6E900240021BDE8EA
:100D2000F087314630460EE7AC46EDE6184601E75F
:100D30004345E6D2B8EB020E69EB07050138E0E760
:100D40002846D3E760468FE78146BAE7614677E7F2
:100D500008464BE7ACF1020C3D4415E702383C4431
:100D600026E700BF03685A004CBF43F0004323F05E
:100D700000431844704700BF2DE9F84329B34F1EC4
:100D8000044615463E464FF0000808EB060101EB0D
:100D9000D171491004EBC1094846FFF7E3FF034650
:100DA000C80008308F42204409D0AB4209D8FFF771
:100DB000D9FF0138A8420AD201F10108E5E7AB42A8
:100DC00005D9884501D04E1EDFE74FF0000948469F
:100DD000BDE8F883012807D0022807D0044B00287B
:100DE0000CBF184600207047024870470248704701
:100DF000991400089D140008A114000830B5234B75
:100E000083B004468D1E3BB301A92846AFF3008092
:100E1000E8B101992A46FFF7AFFF0146B8B1FFF7E5
:100E2000A1FF4B68A064012B2BD0002B01F1040023
:100E300023DBFFF797FF0023C4E913030368002BAC
:100E400010DBFFF78FFF2061002003B030BD0023CF
:100E50000920236103B030BD0D490E48091AC9109D
:100E60000191D7E7C3F30360FFF7B4FF00282061C7
:100E700014BF0020092003B030BD0123C4E91303CF
:100E8000DCE7002323610520DFE700BF000000004E
:100E900048EA000850E900080368DA0710B504467C
:100EA00006D49B0700F1480009D500F04BFC2368ED
:100EB000590709D51A070ED5DB0613D510BD00F06A
:100EC00039FC23685907F5D404F1D00000F042FC46
:100ED00023681A07F0D404F5A87000F043FC2368D7
:100EE000DB06EBD404F5E870BDE8104000F07EBCF2
:100EF0000346006800B11844704700BF09207047DE
:100F0000704700BF70B504460E46316C2046FFF7AF
:100F100075FF054688B9336C636132462369214603
:100F2000012098470828F0D0072806D12846316CC0
:100F3000FFF7E6FF301D00F0F1FB08F051FA00BFAB
:100F40002DE9F0470D1D064614460FCDADF5727D17
:100F50000DF10C0CACE80F000FCDACE80F000FCD7D
:100F6000ACE80F0095E80F0002ADF768D6F81880DE
:100F70008CE80F0000232B6021E02B6C73614FF491
:100F8000F07229467AA800F041FE33697AAA314608
:100F900050469847889BCDE9005821466B648146AE
:100FA000334632460120B8470446E8B94FF4F072A0
:100FB0007AA9284600F02AFEB9F1080F1BD1296C46
:100FC0003046FFF71BFF09345FFA84FA8146002898
:100FD000D3D0AB6B4AF01001CDE9005832466B64B8
:100FE00001203346B84708B14FF0090948460DF5CE
:100FF000727DBDE8F087B9F1070FF5D12046296C65
:10100000FFF77EFF03A800F089FB00BF406C70472C
:10101000F0B5CB6B0B640E1D0F4605460FCEF9B035
:1010200001AC0FC40FCE0FC40FCE0FC496E80F0053
:101030004FF0FF3684E80F00009606E02B696A4601
:10104000294698470828044608D110992846FFF7F2
:10105000D5FE0028F2D0092079B0F0BD6846FFF730
:101060001BFF062CF7D139462846FFF74BFF00BF80
:1010700030B4DD6BC160826119461D64002230BC52
:101080005EE700BF70B5C66843690B64AEB903691B
:101090000A4604460D46014602209847072805D017
:1010A00008280FD129462046FFF72CFF3046296C2F
:1010B000FFF726FF281D00F031FB0122FFF740FF5C
:1010C00008F08EF908F08CF9C2681AB1CA6B0A648C
:1010D000002235E79CE700BF704700BF83680146E8
:1010E0000BB1012018477047012912D009D873B9F4
:1010F0000F2A0CD800EB820218465368009A13603E
:1011000070470339012994BF012002207047022053
:1011100070470846704700BF10B584B0002303AC89
:101120000A4600941946FFF7DFFF039804B010BD8C
:10113000012912D009D873B90F2A0CD800EB82000C
:10114000009A12684260184670470339012994BF1B
:10115000012002207047022070470846704700BFF8
:1011600010B584B0002303AC039200940A461946DC
:10117000FFF7DEFF04B010BDF0B5D36B1364151D8F
:101180008C4606460FCDADF50F7D17AC0FC40FCDC5
:101190000FC40FCD0FC495E80F004FF0FF3784E860
:1011A0000F006546169710E0FFF7DAFF294616A8EC
:1011B000B047034616AA6946082083B9049B98479E
:1011C000052804460CD0092809D026996846FFF75F
:1011D00015FE03466A460C2116A8002BE4D009240C
:1011E00016A8FFF759FE20460DF50F7DF0BD00BF94
:1011F0002DE9F04FCC6C89B00D4654F8041B0694D1
:10120000174600F003081E46002B79D00B0CDAB20B
:1012100009048DF81D30022304EB820405918DF83A
:101220001C302B6DB8F1020F08BFAC6B13F001033B
:101230000CD0384605A900F073FB18B9082009B096
:10124000BDE8F08F092009B0BDE8F08FD4F800A008
:10125000BAF1000FEDD0019300F008030293022EC3
:101260004AD0B4F800A0B4F802900434AA6C29F073
:10127000010B0F2138469344FFF74EFF834539D8C1
:101280002AF001025A44824294BF002001204FEA12
:10129000490303F002030AF0010A43EA0A03012B9F
:1012A00049D0022B32D0002BCCD1B8F1000F02D0A4
:1012B000002840F0CD800434D4F800A0BAF1000F2B
:1012C000CDD105A9384600F02BFB0028BAD1019BEF
:1012D000002BB3D00F213846FFF71EFF0E21024628
:1012E0003846FFF73DFF38466A4A0F21FFF738FFBF
:1012F0000720A8E70020CAE7D4F804900834B5E72F
:10130000090203230591ADF81C308AE7236823F016
:10131000004BB8F1000F45D128B1029A002A5CD0E9
:10132000BBF1000F74D0002B00DA04340BF1010B79
:1013300004EB8B04C0E7B8F1000F19D1B0B1D4E9C8
:101340000023991C4FEAD2723FF47CAF05F158019B
:101350000133049100F09080201DFFF7C9FD04AB1C
:1013600001462846AFF3008000285BD10834A3E78C
:101370000D213846D5F82090FFF7CEFE8145F5D1F6
:10138000AB6A9C42F2D12046FFF7ECFC0F210246EB
:101390003846FFF7E5FE38462A460021FFF7E0FE13
:1013A000072050E70D213846D5F82090FFF7B4FE0E
:1013B000814501D02368B6E7AB6A9C42FAD104228A
:1013C0000021C5E90B12A318C5F828B06B63236888
:1013D0008B4259DB01230193A8E705F15803CDF8AF
:1013E0000C8004F1040AB04691461E460DE00496B6
:1013F000FFF77EFD04AB014600222846AFF30080D4
:1014000009F101090AF1040AE8B9D9455046EED1BB
:1014100038460D21FFF780FE049B2862C5E9093498
:10142000062010E781460D213846FFF775FEB9F119
:10143000020F286225D12B46049A43F82C2F6B62A9
:10144000AC620620FFE646462368DDF80C806AE7BA
:101450002046FFF787FC04340246AC632846144656
:10146000AFF3008000283FF4EDAE384622460F214E
:10147000FFF776FE0720E6E638460D21FFF74CFE23
:101480002862049B6B62DBE70BF1010004EB800038
:101490007AE700BF000000000023A9E60123A7E6C9
:1014A0000223A5E62DE9F0430646C3B015461C46C7
:1014B000042900F2B980DFE801F09A53B72903004C
:1014C000002C40F0B180102A00F2AE800368D806EC
:1014D00000F1F38020AF384600F092F9B06B0023A2
:1014E000012404FA03F22A42014604D051F8042BE5
:1014F00047F8232008460133042BF2D1B063384665
:1015000000F074F9002043B0BDE8F083032C40F0F4
:101510008B8094B204EB1243102B4FEA124500F279
:10152000838003681F0700F1D08020AF384600F0A9
:101530003BF907EBC501B56B54B10B46E81A01EB5B
:10154000C401E4001A5843F8042B8B42FAD1254415
:101550003846B56300F006F9002043B0BDE8F083DB
:10156000012C4FEA124895B25AD0052C5CD108EBF9
:101570000509B9F1200F57D8B8F10F0F77D9A9464F
:10158000002D40F08880B36B6DB320AF4FF00009A1
:1015900007EBC807043F03EBC50553F8041B47F8E6
:1015A000041FAB42F9D1B9F1000F0FD06F4641468D
:1015B000102938BF102107EBC101843903EBC9059D
:1015C00053F8040B41F8040FAB42F9D1012C00F0A1
:1015D0008480B8F10F0FB56345D9B9F1000F02D07F
:1015E000684600F0B7F8002043B0BDE8F083DCB9EE
:1015F000876B2346012094B206F1040C00FA03F233
:101600002242394604D051F8042B4CF823200F46CF
:101610000133102BF2D115F40050E4D1B76304E08C
:1016200008EB0503102B03D9022043B0BDE8F0837B
:10163000B8F10F0FF8D83368DA0706D5304623F033
:10164000030340F8483B00F079F820AF384600F03B
:1016500075F8B36B002D99D11D460435B563384636
:1016600000F068F8BFE720A800F06CF8B5E7B9F122
:10167000100F40D9A9F110093368D90708D523F014
:101680000103304643F0020340F8483B00F05EF8A7
:10169000B9F1000F32D033685A0720D4B8F10F0FD8
:1016A00025D96F463846C8F1100500F057F8002DCF
:1016B000B36B7FF77CAF20AF6AE723F01003336092
:1016C00006F5E87000F09CF804E723F008030360D7
:1016D00000F5A87000F068F827E720AFBDE73046B6
:1016E00023F0040340F8D03B00F038F8D6E720A8F8
:1016F00000F02CF8D5E74FF00009BDE7B8F10F0F67
:101700003FF641AF20AF384600F020F8B36B002D14
:101710007FF43CAF384600F015F864E700F134017F
:1017200091E838009C46A6464CF8045D90E8FF0F0F
:10173000E54600BD90EC210B704700BF80EC210B0B
:10174000704700BF90EC200B704700BF80EC200B6F
:10175000704700BFD0EC200B704700BFC0EC200BDF
:10176000704700BFF0EC0201F0EC0211F0EC022136
:10177000F0EC0231F0EC0241F0EC0251F0EC0261CD
:10178000F0EC0271F0EC0281F0EC0291F0EC02A1BD
:10179000F0EC02B1F0EC02C1F0EC02D1F0EC02E1AD
:1017A000F0EC02F1704700BFE0EC0201E0EC021146
:1017B000E0EC0221E0EC0231E0EC0241E0EC02510D
:1017C000E0EC0261E0EC0271E0EC0281E0EC0291FD
:1017D000E0EC02A1E0EC02B1E0EC02C1E0EC02D1ED
:1017E000E0EC02E1E0EC02F1704700BFB0FC0181E7
:1017F000B0FC0191B0FC01A1B0FC01B1704700BF89
:10180000A0FC0181A0FC0191A0FC01A1A0FC01B100
:10181000704700BFEC4600B52DE900502DE9FF1FD1
:101820004FF000032DE90C0001A9FFF7F1FBDDF8F3
:1018300040E012B0704700BFEC4600B52DE9005003
:101840002DE9FF1F4FF000032DE90C0001A9FFF760
:1018500019FCDDF840E012B0704700BFEC4600B55F
:101860002DE900502DE9FF1F4FF000032DE90C007A
:1018700001A9FFF729FCDDF840E012B0704700BF76
:10188000EC4600B52DE900502DE9FF1F4FF0000395
:101890002DE90C0001ABFFF7EBFBDDF840E012B0E7
:1018A000704700BFEC4600B52DE900502DE9FF1F41
:1018B0004FF000032DE90C0001AAFFF75DFCDDF8F5
:1018C00040E012B0704700BF027A7AB9437AA3B100
:1018D0004268013B10B4437213680321141D017266
:1018E0001A024460026010BC180E70470368013A87
:1018F00002721A020260180E7047B020704700BFD3
:1019000000B585B003AA0023009219460C22FFF708
:10191000EBFB039805B05DF804FB00BFF0E700BFE8
:101920002DE9F043054685B00E464FF000083046DD
:10193000FFF7CAFFB028044600F0B280070620D5A2
:1019400000F0F003802B4DD0902B36D0A02B60D030
:10195000B02B74D0C02B00F08B8000F0F803D02B9C
:101960000BD100F00702013242F4002205230121CD
:101970002846FFF797FD0028D9D0092005B0BDE81B
:10198000F0830DF10C09002319468700CDF8009073
:101990000D222846FFF7A8FBFFB2039BCDF800906D
:1019A000043760064CBFDF1BFF18002319460D22C9
:1019B00028460397FFF7BCFBB9E700F00D030D2B9A
:1019C000DBD003AF002300F00F0219460097284632
:1019D000FFF78AFB0023009719460D222846FFF7E0
:1019E000A7FBA4E73046FFF76FFF24022043B0F5C2
:1019F000004FC2D004010023A2B219462846FFF7C7
:101A000051FD0028B9D114F4004F18BF4FF0010860
:101A10008DE7C24302F007034FF47F621A410107CA
:101A200002F47F624FF0000348BF42F4804219463F
:101A30002846FFF737FD00283FF479AF9DE7B1282E
:101A400033D0B22800F08B80B32839D000F0FC03EB
:101A5000B42B92D000F007020132012342F400229D
:101A600019462846FFF71EFD00283FF460AF84E7C3
:101A7000C62842D0C7284CD000F0F803C02B5BD05A
:101A8000C82860D0C9287FF478AF3046FFF71CFF24
:101A9000020300F00F0002F470220130024365E7F8
:101AA000B8F1000F18D0002068E73046FFF70CFFB0
:101AB000024600283FF461AF10F0F003D0D05CE79D
:101AC0003046FFF701FF010300F00F0001F4702121
:101AD000421C01230A43C3E703AC43460E2241469E
:101AE00000942846FFF700FB0094284643460F2247
:101AF0004146FFF71DFB404640E73046FFF7E4FE56
:101B0000010300F00F0001F47021421C03230A437B
:101B1000A6E73046FFF7D8FE024600283FF42DAF77
:101B200010F0F0037FF429AF04212846FFF7BAFC38
:101B300000283FF4FCAE20E700F00F02013203233F
:101B400042F420228CE73046FFF7BEFE00F0F002A0
:101B500000F00F031032013343EA023206E700239C
:101B60000DF10C090D221946CDF800902846FFF71B
:101B7000BBFA3046FFF7A8FE02064FF002070CD56D
:101B8000039B00F07F00B840034430460393FFF707
:101B90009BFE030607F10707F2D4039BCDF80090E4
:101BA00000F07F0403F50172BC4000231444194681
:101BB0000D2228460394FFF7BBFAB8E610B5C26CB5
:101BC00084B0536803248DF80C401B0202F1080412
:101BD0000846D279019301A902948DF80D20FFF7F0
:101BE0009FFE04B010BD00BF08B5FFF797FE806CE4
:101BF00008BD00BF08B5FFF791FEC06CC379023382
:101C000000EB830008BD00BF704700BF844641EA77
:101C1000000313F003036DD1403A41D351F8043B64
:101C200040F8043B51F8043B40F8043B51F8043BB6
:101C300040F8043B51F8043B40F8043B51F8043BA6
:101C400040F8043B51F8043B40F8043B51F8043B96
:101C500040F8043B51F8043B40F8043B51F8043B86
:101C600040F8043B51F8043B40F8043B51F8043B76
:101C700040F8043B51F8043B40F8043B51F8043B66
:101C800040F8043B51F8043B40F8043B51F8043B56
:101C900040F8043B51F8043B40F8043B403ABDD2C5
:101CA000303211D351F8043B40F8043B51F8043B67
:101CB00040F8043B51F8043B40F8043B51F8043B26
:101CC00040F8043B103AEDD20C3205D351F8043BF6
:101CD00040F8043B043AF9D2043208D0D2071CBFC2
:101CE00011F8013B00F8013B01D30B8803806046EB
:101CF000704700BF082A13D38B078DD010F0030361
:101D00008AD0C3F10403D21ADB071CBF11F8013BD0
:101D100000F8013B80D331F8023B20F8023B7BE71F
:101D2000043AD9D3013A11F8013B00F8013BF9D24A
:101D30000B7803704B7843708B78837060467047E4
:101D4000A2EB0300704700BF02780B78012A28BF7E
:101D50009A42F5D16DE9044540EA0104CDE90267F4
:101D60006FF0000C4FEA447212B380EA010414F0E1
:101D7000070F6AD100F0070420F0070004F0030504
:101D800021F007014FEAC505F0E8042314F0040F21
:101D9000F1E804670CFA05F462EA040266EA040654
:101DA0000AD063EA0403624667EA0407664603E072
:101DB000F0E80423F1E8046782FA4CF582EA0604AD
:101DC000A4FA8CF46CBB83FA4CF583EA0705A5FAF8
:101DD0008CF595B950E9022351E9026782FA4CF576
:101DE00082EA0604A4FA8CF483FA4CF583EA070528
:101DF000A5FA8CF52543DBD09CB92DBAB5FA85F44C
:101E000024F0070427FA04F1DDE9026723FA04F35A
:101E100003F0FF0001F0FF01FDE80445A0EB010025
:101E2000704724BAB4FA84F424F0070426FA04F1C3
:101E3000DDE9026722FA04F202F0FF0001F0FF017F
:101E4000FDE80445A0EB0100704714F0030F3CD1FE
:101E500010F0030428D150F8082B51F8083B82FAFF
:101E60004CF582EA0305A5FA8CF55DB950F8042C0F
:101E700051F8043C82FA4CF582EA0305A5FA8CF588
:101E8000002DE8D02DBAB5FA85F424F0070423FA22
:101E900004F122FA04F202F0FF0001F0FF01FDE874
:101EA0000445A0EB010070474FEAC40420F0030092
:101EB00050F8082B21F0030151F8083B0CFA04F408
:101EC00062EA040263EA0403C9E710F003041AD0CB
:101ED000A1EB040120F00300E40750F8042B06D026
:101EE0000FD28B785FFAA2F4E41A06D12BB1CB782B
:101EF0005FFAB2F4E41A00D11BB920465DF8104B2A
:101F0000704701F1040150F8042BCC0721F00301C4
:101F100051F8043B48D824D222F07F4482FA4CF591
:101F200094EA1325A5FA8CF50AD165B951F8043B5A
:101F300084EA0204B4EB036F0ED150F8042BEBE7F4
:101F40004FEA132355E035F07F454DD10878FDE881
:101F50000445C0F1000070474FEA126203F0FF032E
:101F600047E002EA1C4482FA4CF594EA1345A5FACC
:101F70008CF50AD165B951F8043B84EA0204B4EB4C
:101F8000034F0CD150F8042BEBE74FEA134330E03A
:101F900015EA1C4528D10B884FEA124229E04FEA86
:101FA000124203EA1C4324E002F0FF0482FA4CF5DB
:101FB00094EA1365A5FA8CF50AD165B951F8043B8A
:101FC00084EA0204B4EB032F09D150F8042BEBE7A9
:101FD0004FEA13630DE015F0FF0F05D10B684FEAD0
:101FE000122223F07F4304E04FF00000FDE8044597
:101FF000704712BA1BBA82FA4CF482EA0304A4FABC
:102000008CF5B5FA85F402FA04F203FA04F34FEA08
:102010001260FDE80445A0EB13607047000000006B
:1020200001F0FF01102A2BDB10F0070F08D010F889
:10203000013B013A8B422DD010F0070F42B3F6D18D
:10204000F0B441EA012141EA014122F007047FF0A6
:1020500000070023F0E80256083C85EA010586EAFD
:10206000010685FA47F5A3FA87F586FA47F6A5FA39
:1020700087F68EB9EED1F0BC01F0FF0102F0070245
:1020800032B110F8013B013A83EA010313B1F8D1F0
:102090000020704701387047002D06BF35460338D1
:1020A000073815F0010F07D1013015F4807F02BF0A
:1020B000013015F4C03F0130F0BC0138704700BF5B
:1020C00090F800F06DE9024520F007016FF0000C78
:1020D00010F0070491F820F040F049804FF0000420
:1020E0006FF00700D1E9002391F840F000F10800FB
:1020F00082FA4CF2A4FA8CF283FA4CF3A2FA8CF333
:102100004BBBD1E9022382FA4CF200F10800A4FA99
:102110008CF283FA4CF3A2FA8CF3E3B9D1E90423ED
:1021200082FA4CF200F10800A4FA8CF283FA4CF324
:10213000A2FA8CF37BB9D1E9062301F1200182FADE
:102140004CF200F10800A4FA8CF283FA4CF3A2FAE4
:102150008CF3002BC6D0002A04BF04301A4612BAF2
:10216000B2FA82F2FDE8024500EBD2007047D1E9F5
:10217000002304F00305C4F100004FEAC50514F084
:10218000040F91F840F00CFA05F562EA05021CBF55
:1021900063EA050362464FF00004A9E770B54FF00B
:1021A000FF0C4CF4E06C1CEA11541DBF1CEA1355E3
:1021B00094EA0C0F95EA0C0F00F0DEF82C4481EA4B
:1021C000030621EA4C5123EA4C5350EA013518BF6B
:1021D00052EA033541F4801143F4801338D0A0FB58
:1021E00002CE4FF00005E1FB02E506F00042E0FB05
:1021F00003E54FF00006E1FB03569CF0000F18BF0B
:102200004EF0010EA4F1FF04B6F5007F64F54074B2
:1022100004D25FEA4E0E6D4146EB060642EAC62145
:1022200041EA55514FEAC52040EA5E504FEACE2EB2
:10223000B4F1FD0C88BFBCF5E06F1ED8BEF1004FB5
:1022400008BF5FEA500E50F1000041EB045170BD31
:1022500006F0004646EA010140EA020081EA030175
:10226000B4EB5C04C2BFD4EB0C0541EA045170BD71
:1022700041F480114FF0000E013C00F3AB8014F1EB
:10228000360FDEBF002001F0004170BDC4F1000434
:10229000203C35DA0C341BDC04F11404C4F12005B5
:1022A00000FA05F320FA04F001FA05F240EA020010
:1022B00001F0004221F0004110EBD37021FA04F646
:1022C00042EB06015EEA430E08BF20EAD37070BD00
:1022D000C4F10C04C4F1200500FA04F320FA05F05F
:1022E00001FA04F240EA020001F0004110EBD37061
:1022F00041F100015EEA430E08BF20EAD37070BDD1
:10230000C4F1200500FA05F24EEA020E20FA04F3A9
:1023100001FA05F243EA020321FA04F001F0004158
:1023200021FA04F220EA020000EBD3705EEA430EC9
:1023300008BF20EAD37070BD94F0000F0FD101F0F8
:102340000046400041EB010111F4801F08BF013C31
:10235000F7D041EA060195F0000F18BF704703F06F
:102360000046520043EB030313F4801F08BF013DF6
:10237000F7D043EA0603704794EA0C0F0CEA1355B2
:1023800018BF95EA0C0F0CD050EA410618BF52EA6C
:102390004306D1D181EA030101F000414FF0000072
:1023A00070BD50EA410606BF1046194652EA430680
:1023B00019D094EA0C0F02D150EA013613D195EAF4
:1023C0000C0F05D152EA03361CBF104619460AD13C
:1023D00081EA030101F0004141F0FE4141F4700146
:1023E0004FF0000070BD41F0FE4141F4780170BD36
:1023F00070B54FF0FF0C4CF4E06C1CEA11541DBF9B
:102400001CEA135594EA0C0F95EA0C0F00F0A7F89C
:10241000A4EB050481EA030E52EA03354FEA0131C9
:1024200000F088804FEA03334FF0805545EA1313DC
:1024300043EA12634FEA022245EA111545EA1065A4
:102440004FEA00260EF000419D4208BF964244F13B
:10245000FD0404F5407402D25B084FEA3202B61A5A
:1024600065EB03055B084FEA32024FF480104FF42E
:10247000002CB6EB020E75EB030E22BFB61A7546A2
:1024800040EA0C005B084FEA3202B6EB020E75EB35
:10249000030E22BFB61A754640EA5C005B084FEA9D
:1024A0003202B6EB020E75EB030E22BFB61A75466A
:1024B00040EA9C005B084FEA3202B6EB020E75EB75
:1024C000030E22BFB61A754640EADC0055EA060E36
:1024D00018D04FEA051545EA16754FEA06164FEA79
:1024E000C30343EA52734FEAC2025FEA1C1CC0D125
:1024F00011F4801F0BD141EA00014FF000004FF0B2
:10250000004CB6E711F4801F04BF01430020B4F172
:10251000FD0C88BFBCF5E06F3FF6AFAEB5EB030C2A
:1025200004BFB6EB020C5FEA500C50F1000041EB27
:10253000045170BD0EF0004E4EEA113114EB5C04F4
:10254000C2BFD4EB0C0541EA045170BD41F48011C7
:102550004FF0000E013C90E645EA060E8DE60CEACF
:10256000135594EA0C0F08BF95EA0C0F3FF43BAFEC
:1025700094EA0C0F0AD150EA01347FF434AF95EAA3
:102580000C0F7FF425AF104619462CE795EA0C0F87
:1025900006D152EA03353FF4FDAE1046194622E754
:1025A00050EA410618BF52EA43067FF4C5AE50EA2E
:1025B00041047FF40DAF52EA43057FF4EBAE12E71E
:1025C0004FF0FF3C06E000BF4FF0010C02E000BFFF
:1025D0004FF0010C4DF804CD4FEA410C7FEA6C5CE2
:1025E0004FEA430C18BF7FEA6C5C1BD001B050EA85
:1025F000410C0CBF52EA430C91EA030F02BF90EA70
:10260000020F0020704710F1000F91EA030F58BF2E
:10261000994208BF90422CBFD8176FEAE37040F090
:10262000010070474FEA410C7FEA6C5C02D150EA2E
:10263000013C07D14FEA430C7FEA6C5CD6D152EAE9
:10264000033CD3D05DF8040B704700BF84461046AE
:1026500062468C461946634600E000BF01B5FFF7AD
:10266000B7FF002848BF10F1000F01BD4DF808ED7D
:10267000FFF7F4FF0CBF012000205DF808FB00BF4E
:102680004DF808EDFFF7EAFF34BF012000205DF8A8
:1026900008FB00BF4DF808EDFFF7E0FF94BF0120F5
:1026A00000205DF808FB00BF4DF808EDFFF7CEFFF6
:1026B00094BF012000205DF808FB00BF4DF808ED35
:1026C000FFF7C4FF34BF012000205DF808FB00BF06
:1026D0004FEA410C7FEA6C5C02D150EA013C0AD11E
:1026E0004FEA430C7FEA6C5C02D152EA033C02D110
:1026F0004FF0000070474FF0010070474FEA410271
:1027000012F5001215D211D56FF47873B3EB625243
:1027100012D94FEAC12343F0004343EA505311F06A
:10272000004F23FA02F018BF404270474FF00000FC
:10273000704750EA013005D111F0004008BF6FF03A
:10274000004070474FF00000704700BF00B585B0F3
:10275000002300930193029303931548154A0260E6
:102760004FF480324260836003610122027680F878
:102770002030C36210498162C360C26180F830209A
:10278000426104F0E7FB68B905230093012301933C
:10279000002302936946064804F022FD28B905B0DB
:1027A0005DF804FB04F00EF8EEE704F00BF8F6E732
:1027B000F4090020002001400100000F30B589B06D
:1027C000002303930493059306930793026803F190
:1027D000804303F590339A4201D009B030BD0446DE
:1027E0000025019503F58C335A6C42F480725A64CB
:1027F0005A6C02F480720192019A02951A6B42F0AF
:1028000001021A631B6B03F001030293029B202356
:10281000039303230493059503A9114805F078F861
:102820001048114B036045608560C5604FF48063BC
:1028300003614FF4805343614FF4804383614FF44D
:102840008073C3614FF440330362456204F07AFE43
:1028500018B9044BA3639C63BFE703F0B3FFF8E729
:10286000000002403C0A00201064024010B582B013
:1028700000240194114B1A6B42F480021A631B6B03
:1028800003F480030193019B22462146382004F083
:1028900083FD382004F0B4FD224621463A2004F09E
:1028A0007BFD3A2004F0ACFD22462146462004F090
:1028B00073FD462004F0A4FD02B010BD00380240B4
:1028C000224B1B6803B170472DE9F04186B001240B
:1028D0001E4B1C60002300931D4B9A6B22439A638E
:1028E0009B6B23400093009B4FF48058CDF80480ED
:1028F000022702970394032604960C25059501A947
:10290000144805F005F84FF680730193029703947D
:102910000496059501A9104804F0FAFF4CF23373B0
:102920000193029703940496059501A90B4804F0BE
:10293000EFFFCDF80480029703940496059501A952
:10294000074804F0E5FF06B0BDE8F0819C0A0020CE
:10295000003802400014024000100240000C024007
:102960000018024030B58FB01C484FF02043036080
:1029700003F582734360062383600023C360036111
:10298000102242618361C361036243624FF480514C
:102990008162C3624FF48041016343638363436494
:1029A0000F21079108913C2409940A930B9211245A
:1029B0000C940D9309250095019108210291039330
:1029C0000492059406936A4607A905F0B3FB08B97B
:1029D0000FB030BD03F0F6FEFAE700BFA00A0020FA
:1029E00008B5FFF76DFF08BDF0B58DB00024079462
:1029F000089409940A940B940094354B1A6B42F096
:102A000020021A631A6B02F020020092009A0194CD
:102A10001A6B42F080021A631A6B02F08002019274
:102A2000019A02941A6B42F001021A631A6B02F0C7
:102A300001020292029A03941A6B42F010021A6386
:102A40001A6B02F010020392039A04941A6B42F07C
:102A500002021A631A6B02F002020492049A0594AD
:102A60001A6B42F008021A631A6B02F00802059210
:102A7000059A06941A6B42F040021A631B6B03F02E
:102A800040030693069B134F01224FF4C061384662
:102A900005F028F8104E22464FF40041304605F06C
:102AA00021F84FF4C06307930125089509950A940E
:102AB00007A9384604F02CFF4FF40043079308950C
:102AC00009950A9507A9304604F022FF0DB0F0BD24
:102AD00000380240001402400004024082B0ADF809
:102AE0000600BDF806309BB2ADF80630BDF80630E2
:102AF0009BB2024A138002B0704700BF7E00006C98
:102B000082B0ADF80600BDF806309BB2ADF80630D5
:102B1000BDF806309BB2024A538002B0704700BF36
:102B20007E00006C82B0054B5B889BB2ADF806302E
:102B3000BDF8060080B202B0704700BF7E00006C96
:102B4000014B1880598070477E00006C08B5FFF774
:102B5000C5FF052003F0FEFFFFF7E4FF08BD0000FE
:102B6000024B1A89024B1A80704700BFF40A0020FA
:102B70007E00006C70B504460D46614B9B8849F29F
:102B8000413293421FD045F2103293421BD046F699
:102B9000040293422BD041F66312934246D045F291
:102BA0001052934200F08680554B9B79012B00F028
:102BB0009F80534E21467089FFF7C2FF2946B08996
:102BC000FFF7BEFF12E04E4E7089FFF787FF200A25
:102BD000FFF796FFE0B2FFF793FFB089FFF77EFFA4
:102BE000280AFFF78DFFE8B2FFF78AFF70BD444B5C
:102BF0009B79012B13D0424E7089FFF76FFF200A9B
:102C0000FFF77EFFE0B2FFF77BFFB089FFF766FFBB
:102C1000280AFFF775FFE8B2FFF772FFE6E7384BC7
:102C20001B881C1AA4B2013CA4B2E4E7344B9B7984
:102C300053BB334A13881C1AA4B2013CA4B2508976
:102C4000FFF74CFF0020FFF75BFF0020FFF758FF66
:102C5000200AFFF755FFE0B2FFF752FF284CA0898A
:102C6000FFF73CFF280AFFF74BFFE8B2FFF748FFEA
:102C700060880138C0F30F20FFF742FF60880138F9
:102C8000C0B2FFF73DFFB1E71D4E7089FFF726FF89
:102C9000200AFFF735FFE0B2FFF732FF3088013836
:102CA000C0F30F20FFF72CFF30880138C0B2FFF7C8
:102CB00027FFD3E7124E7089FFF710FF200AFFF7B6
:102CC0001FFF7089013080B2FFF708FFE0B2FFF705
:102CD00017FFB089FFF702FF280AFFF711FFB0893D
:102CE000013080B2FFF7FAFEE8B2FFF709FF7DE797
:102CF000034B1B881C1AA4B2013CA4B259E700BFC5
:102D0000F40A002010B5964B9B79012B29D02BB9E2
:102D1000934B9A8841F663139A422CD0904B9B8830
:102D200049F2413293423ED046F6040293423AD0F1
:102D300045F21032934236D045F21052934232D0CF
:102D400041F6631293422ED0072800F2F480DFE8A8
:102D500010F00501F400FB00F200FD00FF0001018E
:102D600003017F4A928846F604018A42CFD041F699
:102D700063118A42CBD00728D0D8DFE800F01204D4
:102D800006080A0C0E100720C8E70420C6E7052035
:102D9000C4E70120C2E70020C0E70320BEE702200D
:102DA000BCE70620BAE70138062805D8DFE800F0BE
:102DB0006A06606264666800002400E0402445F210
:102DC0001052934260D0362045F21032934209D01F
:102DD00045F21052934205D041F66312934201D05E
:102DE00044F0080446F60402934250D02146FFF70F
:102DF000A7FE5B4B9B8841F6631293420AD014F006
:102E0000200F47D0564A11885288914202D2544826
:102E10000280418045F21052934244D0504C608968
:102E2000FFF75CFE0020FFF76BFE0020FFF768FE57
:102E300020880138C0F30F20FFF762FE2088013898
:102E4000C0B2FFF75DFEA089FFF748FE0020FFF744
:102E500057FE0020FFF754FE60880138C0F30F20B2
:102E6000FFF74EFE60880138C0B2FFF749FE10BD83
:102E7000C024A4E72024A2E76024A0E7A0249EE7C2
:102E8000E0249CE780249AE74FF458509CE744F0F4
:102E90000204ABE7324A118852889142BAD93048CD
:102EA00002804180B6E72E4C6089FFF717FE0020B4
:102EB000FFF726FE6089013080B2FFF70FFE002089
:102EC000FFF71EFE6089023080B2FFF707FE208800
:102ED0000138C0F30F20FFF713FE6089033080B282
:102EE000FFF7FCFD20880138C0B2FFF709FEA0897A
:102EF000FFF7F4FD0020FFF703FEA089013080B248
:102F0000FFF7ECFD0020FFF7FBFDA089023080B247
:102F1000FFF7E4FD60880138C0F30F20FFF7F0FDF4
:102F2000A089033080B2FFF7D9FD60880138C0B2B4
:102F3000FFF7E6FD9BE7002100E0102141F48051FE
:102F40000320FFF7FDFD92E72021F7E73821F5E7A1
:102F50002821F3E71821F1E70821EFE73021EDE719
:102F6000F40A00200000000010B50446BE20FFF760
:102F7000B5FD0520FFF7C4FD2046FDF793FA0CA32D
:102F8000D3E90023FFF70AF9FDF7F6FA80B2FFF75D
:102F9000B7FD0120FFF7B4FDFF20FFF7B1FD0020D2
:102FA000FFF7AEFD0020FFF7ABFD10BDAFF30080D3
:102FB000666666666666044008B500285AD1604BAE
:102FC00000229A71F0221A804FF4A0725A809B88D6
:102FD00049F24132934217D046F60402934213D08D
:102FE00045F2103293420FD045F21052934222D054
:102FF00041F6631293422FD0514B22221A81202294
:103000005A8121229A8170E04D4A2C2111812A2176
:1030100051812B21918146F60402934203D045F25F
:103020001032934261D1464B4FF4A0721A804FF494
:10303000F0725A8059E0424B4FF430521A814FF4EB
:1030400028525A814FF42C529A814FF4F0721A8010
:103050004FF448725A8048E0394B2C221A812B22B7
:103060005A812A229A814FF4F0721A804FF44872E2
:103070005A803AE0324B01229A714FF4A0721A80C2
:10308000F0225A809B8849F24132934217D045F290
:103090001032934213D046F60402934229D045F2EF
:1030A000105293422DD041F6631293423AD0244AF3
:1030B00022211181212151812021918106E0204A84
:1030C0002C2111812A2151812B21918146F6040264
:1030D000934203D045F21032934206D1184B4FF47D
:1030E000F0721A804FF4A0725A800020FFF70AFE97
:1030F00008BD134A2C2111812B2151812A21918154
:10310000E4E70F4A4FF4305111814FF428515181B7
:103110004FF42C5191814FF4487111804FF4F071AC
:103120005180D3E7064A2C2111812A2151812B217C
:1031300091814FF4487111804FF4F0715180C5E7CF
:10314000F40A00202DE9F0410546174B1C885A88E7
:1031500004FB02F49A8846F604039A4203D1124B08
:103160009B79012B07D000210846FFF703FDFFF7ED
:10317000F7FC002314E00C4E0020B0712A27778161
:103180004FF02B08A6F80C800146FFF7F3FC012353
:10319000B371A6F80A80B781E9E7044A5580013384
:1031A000A342FAD3BDE8F081F40A00207E00006C4F
:1031B00010B582B000240194322003F01DFE0121DD
:1031C0002046FFF7BDFC322003F016FE2046FFF735
:1031D000BDFC634B9880A0F1FF039BB2B3F57F4F1A
:1031E00033D2B0F5134F30D05D4B9B8849F241325A
:1031F000934200F0B98045F21032934200F0B4805F
:1032000045F21052934200F0AF8041F663129342B0
:1032100000F0AA8046F60402934204D04CF2055214
:10322000934240F0B2804F4A916921F00F019161C1
:10323000916921F470619161916941F00A01916194
:10324000916941F4406191619FE0D320FFF746FC12
:10325000FFF768FC424CA080FFF764FCA080FFF7FA
:1032600061FC0002A080FFF75DFCA388184380B2D8
:10327000A08049F241339842B6D0BF20FFF72EFC20
:10328000FFF750FCA080FFF74DFCA080FFF74AFC41
:10329000A080FFF747FC0002A080FFF743FCA38853
:1032A000184380B2A08046F6040398429CD0D420F4
:1032B000FFF714FCFFF736FCA080FFF733FCA0807B
:1032C000FFF730FC0002A080FFF72CFCA388184316
:1032D00080B2A08045F21033984285D04FF45A4016
:1032E000FFF7FCFBFFF71EFCA0804FF45B40FFF7ED
:1032F000F5FBFFF717FC0002A0804FF45C40FFF7DE
:10330000EDFBFFF70FFCA388184380B2A080B0F557
:10331000004F20D0124B9A8845F210539A423FF446
:1033200063AFA120FFF7DAFBFFF7FCFB0C4CA0809A
:10333000FFF7F8FB0002A080FFF7F4FBA38803432C
:103340009BB2A38045F2617293427FF44DAF41F688
:103350006312A28048E745F21052A280DAE700BF6C
:10336000F40A0020040100A08A4A916921F00F01AB
:103370009161916921F470619161916941F003015A
:103380009161916941F40071916149F24132934236
:1033900000F0028146F60402934200F0208245F2DA
:1033A0001032934200F0C68245F21052934201F06F
:1033B0003A8249F22532934202F0B38149F228322F
:1033C000934202F0858249F22032934202F07483E4
:1033D00049F23132934202F01C8445F20842934292
:1033E00002F0FA8441F20552934202F098854BF2C2
:1033F0000552934202F0A7864CF20552934202F026
:10340000A58744F23152934203F0708044F2355262
:10341000934203F0268141F66312934240F0D0813B
:10342000E220FFF75BFB1D20FFF76AFB0220FFF79E
:1034300067FB0420FFF764FB642003F08BFBE020B4
:10344000FFF74CFB0120FFF75BFB0A2003F0D4FCE5
:10345000E020FFF743FB0320FFF752FB0C2003F0B3
:10346000CBFC0120FFF73AFB0A2003F0C5FCE62065
:10347000FFF734FB2F20FFF743FBFF20FFF740FB54
:10348000FF20FFF73DFBB020FFF728FB2020FFF7D0
:1034900037FB0020FFF734FB0320FFF731FB40F23E
:1034A0001F30FFF72DFB0120FFF72AFB40F2DF1052
:1034B000FFF726FB0020FFF723FBB420FFF70EFBEE
:1034C0000420FFF71DFB40F21F40FFF719FB00200F
:1034D000FFF716FB2E20FFF713FB0020FFF710FB72
:1034E0000020FFF70DFB0020FFF70AFB0020FFF78D
:1034F00007FBB620FFF7F2FA0220FFF701FB4FF4BB
:103500000370FFF7FDFA0020FFF7FAFA1720FFF724
:10351000F7FA1520FFF7F4FA0020FFF7F1FA002080
:10352000FFF7EEFAF020FFF7D9FA0320FFF7E8FAE9
:103530002920FFF7D3FAD020FFF7D0FA0020FFF7B9
:10354000DFFABE20FFF7CAFA0520FFF7D9FAFE20FE
:10355000FFF7D6FA0120FFF7D3FA0020FFF7D0FAE1
:103560000020FFF7CDFA0020FFF7CAFAB820FFF7D6
:10357000B5FA0320FFF7C4FA0120FFF7C1FABA2019
:10358000FFF7ACFA0120FFF7BBFA6420FFF7ECFC71
:1035900016E100BF040100A0CF20FFF79FFA002032
:1035A000FFF7AEFAC120FFF7ABFA3020FFF7A8FA19
:1035B000ED20FFF793FA6420FFF7A2FA0320FFF74C
:1035C0009FFA1220FFF79CFA8120FFF799FAE82072
:1035D000FFF784FA8520FFF793FA1020FFF790FA9F
:1035E0007A20FFF78DFACB20FFF778FA3920FFF722
:1035F00087FA2C20FFF784FA0020FFF781FA3420A5
:10360000FFF77EFA0220FFF77BFAF720FFF766FA52
:103610002020FFF775FAEA20FFF760FA0020FFF795
:103620006FFA0020FFF76CFAC020FFF757FA1B2053
:10363000FFF766FAC120FFF751FA0120FFF760FAA1
:10364000C520FFF74BFA3020FFF75AFA3020FFF77A
:1036500057FAC720FFF742FAB720FFF751FA362092
:10366000FFF73CFA4820FFF74BFA3A20FFF736FA0B
:103670005520FFF745FAB120FFF730FA0020FFF799
:103680003FFA1A20FFF73CFAB620FFF727FA0A2084
:10369000FFF736FAA220FFF733FAF220FFF71EFAFF
:1036A0000020FFF72DFA2620FFF718FA0120FFF778
:1036B00027FAE020FFF712FA0F20FFF721FA2A205D
:1036C000FFF71EFA2820FFF71BFA0820FFF718FA69
:1036D0000E20FFF715FA0820FFF712FA5420FFF723
:1036E0000FFAA920FFF70CFA4320FFF709FA0A2086
:1036F000FFF706FA0F20FFF703FA0020FFF700FAA2
:103700000020FFF7FDF90020FFF7FAF90020FFF78E
:10371000F7F9E120FFF7E2F90020FFF7F1F91520B2
:10372000FFF7EEF91720FFF7EBF90720FFF7E8F9AD
:103730001120FFF7E5F90620FFF7E2F92B20FFF74C
:10374000DFF95620FFF7DCF93C20FFF7D9F9052017
:10375000FFF7D6F91020FFF7D3F90F20FFF7D0F9C4
:103760003F20FFF7CDF93F20FFF7CAF90F20FFF701
:10377000C7F92B20FFF7B2F90020FFF7C1F90020AD
:10378000FFF7BEF90120FFF7BBF93F20FFF7B8F9BB
:103790002A20FFF7A3F90020FFF7B2F90020FFF776
:1037A000AFF90020FFF7ACF9EF20FFF7A9F91120DE
:1037B000FFF794F9782003F01FFB2920FFF78EF91B
:1037C0000020FFF7F9FB01224FF40041584804F0B4
:1037D00089F94FF6FF70FFF7B5FC02B010BD11205C
:1037E000FFF77CF9142003F007FBD020FFF776F9F0
:1037F0000720FFF785F94220FFF782F91D20FFF728
:103800007FF9D120FFF76AF90020FFF779F91A2034
:10381000FFF776F90920FFF773F9D220FFF75EF979
:103820000120FFF76DF92220FFF76AF9C020FFF7AA
:1038300055F91020FFF764F93B20FFF761F90020EC
:10384000FFF75EF90220FFF75BF91120FFF758F947
:10385000C520FFF743F90320FFF752F9C820FFF70F
:103860003DF90020FFF74CF92520FFF749F9212009
:10387000FFF746F90520FFF743F90020FFF740F96D
:103880000A20FFF73DF96520FFF73AF92520FFF7F9
:1038900037F97720FFF734F95020FFF731F90F207F
:1038A000FFF72EF90020FFF72BF9F820FFF716F9A4
:1038B0000120FFF725F9FE20FFF710F90020FFF7A0
:1038C0001FF90220FFF71CF92020FFF707F9362027
:1038D000FFF704F90820FFF713F93A20FFF7FEF885
:1038E0005520FFF70DF92B20FFF7F8F80020FFF720
:1038F00007F90020FFF704F90120FFF701F93F2045
:10390000FFF7FEF82A20FFF7E9F80020FFF7F8F8A4
:103910000020FFF7F5F80120FFF7F2F8DF20FFF7AE
:10392000EFF8782003F068FA2920FFF7D7F847E787
:1039300000040240ED20FFF7D1F80120FFF7E0F886
:10394000FE20FFF7DDF8EE20FFF7C8F8DE20FFF7D6
:10395000D7F82120FFF7D4F8F120FFF7BFF80120B6
:10396000FFF7CEF8DF20FFF7B9F81020FFF7C8F80F
:10397000C420FFF7B3F88F20FFF7C2F8C620FFF787
:10398000ADF80020FFF7BCF8E220FFF7B9F8E2201D
:10399000FFF7B6F8E220FFF7B3F8BF20FFF79EF875
:1039A000AA20FFF7ADF8B020FFF798F80D20FFF739
:1039B000A7F80020FFF7A4F80D20FFF7A1F80020DA
:1039C000FFF79EF81120FFF79BF80020FFF798F80B
:1039D0001920FFF795F80020FFF792F82120FFF754
:1039E0008FF80020FFF78CF82D20FFF789F80020D2
:1039F000FFF786F83D20FFF783F80020FFF780F8F7
:103A00005D20FFF77DF80020FFF77AF85D20FFF7D3
:103A100077F80020FFF774F8B120FFF75FF88020F7
:103A2000FFF76EF80020FFF76BF88B20FFF768F8C0
:103A30000020FFF765F89620FFF762F80020FFF7F7
:103A40005FF8B220FFF74AF80020FFF759F800208E
:103A5000FFF756F80220FFF753F80020FFF750F861
:103A60000320FFF74DF80020FFF74AF8B320FFF7D7
:103A700035F80020FFF744F80020FFF741F8002058
:103A8000FFF73EF80020FFF73BF80020FFF738F87B
:103A90000020FFF735F80020FFF732F80020FFF78D
:103AA0002FF80020FFF72CF80020FFF729F800205E
:103AB000FFF726F80020FFF723F80020FFF720F893
:103AC0000020FFF71DF80020FFF71AF80020FFF78D
:103AD00017F80020FFF714F80020FFF711F8002076
:103AE000FFF70EF80020FFF70BF80020FFF708F8AB
:103AF0000020FFF705F80020FFF702F80020FEF78E
:103B0000FFFFB420FEF7EAFF8B20FEF7F9FF00204D
:103B1000FEF7F6FF9620FEF7F3FF0020FEF7F0FF1A
:103B2000A120FEF7EDFF0020FEF7EAFFB520FEF72B
:103B3000D5FF0220FEF7E4FF0020FEF7E1FF03209F
:103B4000FEF7DEFF0020FEF7DBFF0420FEF7D8FFC4
:103B50000020FEF7D5FFB620FEF7C0FF0020FEF7DD
:103B6000CFFF0020FEF7CCFFB720FEF7B7FF002005
:103B7000FEF7C6FF0020FEF7C3FF3F20FEF7C0FFA1
:103B80000020FEF7BDFF5E20FEF7BAFF0020FEF723
:103B9000B7FF6420FEF7B4FF0020FEF7B1FF8C20D2
:103BA000FEF7AEFF0020FEF7ABFFAC20FEF7A8FF4C
:103BB0000020FEF7A5FFDC20FEF7A2FF0020FEF7A5
:103BC0009FFF7020FEF79CFF0020FEF799FF9020DA
:103BD000FEF796FF0020FEF793FFEB20FEF790FF25
:103BE0000020FEF78DFFDC20FEF78AFF0020FEF7A5
:103BF00087FFB820FEF772FF0020FEF781FF00204C
:103C0000FEF77EFF0020FEF77BFF0020FEF778FF27
:103C10000020FEF775FF0020FEF772FF0020FEF780
:103C20006FFF0020FEF76CFFBA20FEF757FF24203D
:103C3000FEF766FF0020FEF763FF0020FEF760FF3F
:103C40000020FEF75DFFC120FEF748FF2020FEF7B1
:103C500057FF0020FEF754FF5420FEF751FF0020CD
:103C6000FEF74EFFFF20FEF74BFF0020FEF748FF58
:103C7000C220FEF733FF0A20FEF742FF0020FEF7C6
:103C80003FFF0420FEF73CFF0020FEF739FFC32072
:103C9000FEF724FF3C20FEF733FF0020FEF730FF45
:103CA0003A20FEF72DFF0020FEF72AFF3920FEF70D
:103CB00027FF0020FEF724FF3720FEF721FF00201A
:103CC000FEF71EFF3C20FEF71BFF0020FEF718FF4B
:103CD0003620FEF715FF0020FEF712FF3220FEF718
:103CE0000FFF0020FEF70CFF2F20FEF709FF00203A
:103CF000FEF706FF2C20FEF703FF0020FEF700FF73
:103D00002920FEF7FDFE0020FEF7FAFE2620FEF732
:103D1000F7FE0020FEF7F4FE2420FEF7F1FE00205F
:103D2000FEF7EEFE2420FEF7EBFE0020FEF7E8FE95
:103D30002320FEF7E5FE0020FEF7E2FE3C20FEF722
:103D4000DFFE0020FEF7DCFE3620FEF7D9FE002065
:103D5000FEF7D6FE3220FEF7D3FE0020FEF7D0FE9F
:103D60002F20FEF7CDFE0020FEF7CAFE2C20FEF726
:103D7000C7FE0020FEF7C4FE2920FEF7C1FE00208A
:103D8000FEF7BEFE2620FEF7BBFE0020FEF7B8FEC3
:103D90002420FEF7B5FE0020FEF7B2FE2420FEF739
:103DA000AFFE0020FEF7ACFE2320FEF7A9FE0020A8
:103DB000FEF7A6FEC420FEF791FE6220FEF7A0FEED
:103DC0000020FEF79DFE0520FEF79AFE0020FEF77C
:103DD00097FE8420FEF794FE0020FEF791FEF0206F
:103DE000FEF78EFE0020FEF78BFE1820FEF788FE01
:103DF0000020FEF785FEA420FEF782FE0020FEF7DD
:103E00007FFE1820FEF77CFE0020FEF779FE502092
:103E1000FEF776FE0020FEF773FE0C20FEF770FE24
:103E20000020FEF76DFE1720FEF76AFE0020FEF769
:103E300067FE9520FEF764FE0020FEF761FEF3208A
:103E4000FEF75EFE0020FEF75BFEE620FEF758FE62
:103E50000020FEF755FEC520FEF740FE3220FEF79B
:103E60004FFE0020FEF74CFE4420FEF749FE0020E6
:103E7000FEF746FE6520FEF743FE0020FEF740FEFB
:103E80007620FEF73DFE0020FEF73AFE8820FEF782
:103E900037FE0020FEF734FEC620FEF71FFE20206E
:103EA000FEF72EFE0020FEF72BFE1720FEF728FE61
:103EB0000020FEF725FE0120FEF722FE0020FEF77F
:103EC0001FFEC720FEF70AFE0020FEF719FE0020A5
:103ED000FEF716FE0020FEF713FE0020FEF710FE90
:103EE000C820FEF7FBFD0020FEF70AFE0020FEF7CB
:103EF00007FE0020FEF704FE0020FEF701FEC920A9
:103F0000FEF7ECFD0020FEF7FBFD0020FEF7F8FDBC
:103F10000020FEF7F5FD0020FEF7F2FD0020FEF781
:103F2000EFFD0020FEF7ECFD0020FEF7E9FD00208C
:103F3000FEF7E6FD0020FEF7E3FD0020FEF7E0FDC2
:103F40000020FEF7DDFD0020FEF7DAFD0020FEF781
:103F5000D7FD0020FEF7D4FD0020FEF7D1FD0020A4
:103F6000FEF7CEFDE020FEF7B9FD1620FEF7C8FDF6
:103F70000020FEF7C5FD1C20FEF7C2FD0020FEF765
:103F8000BFFD2120FEF7BCFD0020FEF7B9FD362065
:103F9000FEF7B6FD0020FEF7B3FD4620FEF7B0FDAC
:103FA0000020FEF7ADFD5220FEF7AAFD0020FEF72F
:103FB000A7FD6420FEF7A4FD0020FEF7A1FD7A20F6
:103FC000FEF79EFD0020FEF79BFD8B20FEF798FD7F
:103FD0000020FEF795FD9920FEF792FD0020FEF7E8
:103FE0008FFDA820FEF78CFD0020FEF789FDB9208B
:103FF000FEF786FD0020FEF783FDC420FEF780FD5E
:104000000020FEF77DFDCA20FEF77AFD0020FEF7B6
:1040100077FDD220FEF774FD0020FEF771FDD92058
:10402000FEF76EFD0020FEF76BFDE020FEF768FD59
:104030000020FEF765FDF320FEF762FD0020FEF78D
:104040005FFDE120FEF74AFD1620FEF759FD002036
:10405000FEF756FD1C20FEF753FD0020FEF750FD35
:104060002220FEF74DFD0020FEF74AFD3620FEF728
:1040700047FD0020FEF744FD4520FEF741FD0020EE
:10408000FEF73EFD5220FEF73BFD0020FEF738FD17
:104090006420FEF735FD0020FEF732FD7A20FEF7A2
:1040A0002FFD0020FEF72CFD8B20FEF729FD0020C0
:1040B000FEF726FD9920FEF723FD0020FEF720FDE8
:1040C000A820FEF71DFD0020FEF71AFDB920FEF71F
:1040D00017FD0020FEF714FDC420FEF711FD00209F
:1040E000FEF70EFDCA20FEF70BFD0020FEF708FDCF
:1040F000D220FEF705FD0020FEF702FDD820FEF7D6
:10410000FFFC0020FEF7FCFCE020FEF7F9FC00209D
:10411000FEF7F6FCF320FEF7F3FC0020FEF7F0FCC0
:10412000E220FEF7DBFC0520FEF7EAFC0020FEF7AC
:10413000E7FC0B20FEF7E4FC0020FEF7E1FC1B206F
:10414000FEF7DEFC0020FEF7DBFC3420FEF7D8FC97
:104150000020FEF7D5FC4420FEF7D2FC0020FEF73D
:10416000CFFC4F20FEF7CCFC0020FEF7C9FC6120FD
:10417000FEF7C6FC0020FEF7C3FC7920FEF7C0FC6A
:104180000020FEF7BDFC8820FEF7BAFC0020FEF7F9
:10419000B7FC9720FEF7B4FC0020FEF7B1FCA62088
:1041A000FEF7AEFC0020FEF7ABFCB720FEF7A8FC44
:1041B0000020FEF7A5FCC220FEF7A2FC0020FEF7BF
:1041C0009FFCC720FEF79CFC0020FEF799FCD12045
:1041D000FEF796FC0020FEF793FCD620FEF790FC3D
:1041E0000020FEF78DFCDD20FEF78AFC0020FEF7A4
:1041F00087FCF320FEF784FC0020FEF781FCE3201F
:10420000FEF76CFC0520FEF77BFC0020FEF778FC37
:104210000A20FEF775FC0020FEF772FC1C20FEF75A
:104220006FFC0020FEF76CFC3320FEF769FC0020D9
:10423000FEF766FC4420FEF763FC0020FEF760FCFE
:104240005020FEF75DFC0020FEF75AFC6220FEF7CE
:1042500057FC0020FEF754FC7820FEF751FC0020AC
:10426000FEF74EFC8820FEF74BFC0020FEF748FCD2
:104270009720FEF745FC0020FEF742FCA620FEF743
:104280003FFC0020FEF73CFCB720FEF739FC002085
:10429000FEF736FCC220FEF733FC0020FEF730FCB0
:1042A000C720FEF72DFC0020FEF72AFCD120FEF7E8
:1042B00027FC0020FEF724FCD520FEF721FC00207F
:1042C000FEF71EFCDD20FEF71BFC0020FEF718FCAD
:1042D000F320FEF715FC0020FEF712FCE420FEF7A9
:1042E000FDFB0120FEF70CFC0020FEF709FC01207D
:1042F000FEF706FC0020FEF703FC0220FEF700FCA0
:104300000020FEF7FDFB2A20FEF7FAFB0020FEF757
:10431000F7FB3C20FEF7F4FB0020FEF7F1FB4B20FF
:10432000FEF7EEFB0020FEF7EBFB5D20FEF7E8FB5F
:104330000020FEF7E5FB7420FEF7E2FB0020FEF70D
:10434000DFFB8420FEF7DCFB0020FEF7D9FB932087
:10435000FEF7D6FB0020FEF7D3FBA220FEF7D0FB32
:104360000020FEF7CDFBB320FEF7CAFB0020FEF7CE
:10437000C7FBBE20FEF7C4FB0020FEF7C1FBC42034
:10438000FEF7BEFB0020FEF7BBFBCD20FEF7B8FB1F
:104390000020FEF7B5FBD320FEF7B2FB0020FEF7AE
:1043A000AFFBDD20FEF7ACFB0020FEF7A9FBF320FE
:1043B000FEF7A6FB0020FEF7A3FBE520FEF78EFB31
:1043C0000020FEF79DFB0020FEF79AFB0020FEF781
:1043D00097FB0020FEF794FB0220FEF791FB0020E4
:1043E000FEF78EFB2920FEF78BFB0020FEF788FBF3
:1043F0003C20FEF785FB0020FEF782FB4B20FEF7FA
:104400007FFB0020FEF77CFB5D20FEF779FB0020A0
:10441000FEF776FB7420FEF773FB0020FEF770FBBF
:104420008420FEF76DFB0020FEF76AFB9320FEF769
:1044300067FB0020FEF764FBA220FEF761FB002073
:10444000FEF75EFBB320FEF75BFB0020FEF758FB98
:10445000BE20FEF755FB0020FEF752FBC420FEF7FE
:104460004FFB0020FEF74CFBCD20FEF749FB002060
:10447000FEF746FBD320FEF743FB0020FEF740FB90
:10448000DC20FEF73DFB0020FEF73AFBF320FEF7B1
:1044900037FB0020FEF734FBE620FEF71FFB112060
:1044A000FEF72EFB0020FEF72BFB3420FEF728FB47
:1044B0000020FEF725FB5620FEF722FB0020FEF72A
:1044C0001FFB7620FEF71CFB0020FEF719FB772070
:1044D000FEF716FB0020FEF713FB6620FEF710FB2D
:1044E0000020FEF70DFB8820FEF70AFB0020FEF7F8
:1044F00007FB9920FEF704FB0020FEF701FBBB2021
:10450000FEF7FEFA0020FEF7FBFA9920FEF7F8FA14
:104510000020FEF7F5FA6620FEF7F2FA0020FEF71B
:10452000EFFA5520FEF7ECFA0020FEF7E9FA5520E5
:10453000FEF7E6FA0020FEF7E3FA4520FEF7E0FA80
:104540000020FEF7DDFA4320FEF7DAFA0020FEF73E
:10455000D7FA4420FEF7D4FA0020FEF7D1FAE7207C
:10456000FEF7BCFA3220FEF7CBFA0020FEF7C8FABD
:104570005520FEF7C5FA0020FEF7C2FA7620FEF7B6
:10458000BFFA0020FEF7BCFA6620FEF7B9FA002059
:10459000FEF7B6FA6720FEF7B3FA0020FEF7B0FA8E
:1045A0006720FEF7ADFA0020FEF7AAFA8720FEF793
:1045B000A7FA0020FEF7A4FA9920FEF7A1FA00203E
:1045C000FEF79EFABB20FEF79BFA0020FEF798FA52
:1045D0009920FEF795FA0020FEF792FA7720FEF771
:1045E0008FFA0020FEF78CFA4420FEF789FA0020AB
:1045F000FEF786FA5620FEF783FA0020FEF780FACF
:104600002320FEF77DFA0020FEF77AFA3320FEF72A
:1046100077FA0020FEF774FA4520FEF771FA0020C1
:10462000FEF76EFAE820FEF759FA0020FEF768FA66
:104630000020FEF765FA9920FEF762FA0020FEF7E7
:104640005FFA8720FEF75CFA0020FEF759FA88200F
:10465000FEF756FA0020FEF753FA7720FEF750FADD
:104660000020FEF74DFA6620FEF74AFA0020FEF71A
:1046700047FA8820FEF744FA0020FEF741FAAA2004
:10468000FEF73EFA0020FEF73BFABB20FEF738FAB1
:104690000020FEF735FA9920FEF732FA0020FEF7E7
:1046A0002FFA6620FEF72CFA0020FEF729FA552093
:1046B000FEF726FA0020FEF723FA5520FEF720FA2F
:1046C0000020FEF71DFA4420FEF71AFA0020FEF73C
:1046D00017FA4420FEF714FA0020FEF711FA5520CD
:1046E000FEF70EFA0020FEF70BFAE920FEF7F6F9C6
:1046F000AA20FEF705FA0020FEF702FA0020FEF7D6
:10470000FFF90020FEF7FCF90020FEF7E7F9AA20E8
:10471000FEF7F6F9CF20FEF7E1F90020FEF7F0F9F9
:104720000020FEF7EDF90020FEF7EAF90020FEF781
:10473000E7F90020FEF7E4F90020FEF7E1F9002098
:10474000FEF7DEF90020FEF7DBF90020FEF7D8F9CE
:104750000020FEF7D5F90020FEF7D2F90020FEF781
:10476000CFF90020FEF7CCF90020FEF7C9F90020B0
:10477000FEF7C6F90020FEF7C3F90020FEF7C0F9E6
:10478000F020FEF7ABF90020FEF7BAF95020FEF753
:10479000B7F90020FEF7B4F90020FEF7B1F90020C8
:1047A000FEF7AEF9F320FEF799F90020FEF7A8F91D
:1047B000F920FEF793F90620FEF7A2F91020FEF784
:1047C0009FF92920FEF79CF90020FEF799F93A207D
:1047D000FEF784F95520FEF793F91120FEF77EF9D4
:1047E000642002F009FB2920FEF778F93520FEF756
:1047F00075F90020FEF784F95120FEF76FF9FF20CC
:10480000FEF77EF95320FEF769F92C20FEF778F9C0
:104810005520FEF763F98220FEF772F92C20FEF78F
:104820005DF9FEF7CDBF55214FF47040FEF788F9D2
:10483000AA214FF20100FEF783F952214FF2020044
:10484000FEF77EF908214FF20300FEF779F9012106
:104850004FF20400FEF774F90D214FF43040FEF7DB
:104860006FF90D214BF20100FEF76AF90D214BF2B1
:104870000200FEF765F934214FF43640FEF760F987
:1048800034214BF20160FEF75BF934214BF20260F8
:10489000FEF756F90D214FF43140FEF751F90D2185
:1048A0004BF20110FEF74CF90D214BF20210FEF70E
:1048B00047F934214FF43740FEF742F934214BF2E7
:1048C0000170FEF73DF934214BF20270FEF738F922
:1048D00000214FF43240FEF733F900214BF2012062
:1048E000FEF72EF900214BF20220FEF729F92421D0
:1048F0004FF43840FEF724F924214BF60100FEF76F
:104900001FF924214BF60200FEF71AF901214FF49A
:104910003F40FEF715F90F214FF43340FEF710F931
:104920000F214BF20130FEF70BF90F214BF2023051
:10493000FEF706F934214FF43940FEF701F934212E
:104940004BF60110FEF7FCF834214BF60210FEF78F
:10495000F7F808214FF43540FEF7F2F808214BF242
:104960000150FEF7EDF808214BF20250FEF7E8F88F
:1049700003214FF44240FEF7E3F824214FF43A407C
:10498000FEF7DEF824214BF60120FEF7D9F82421AA
:104990004BF60220FEF7D4F800214FF43C40FEF71E
:1049A000CFF878214BF60140FEF7CAF800214BF60C
:1049B0000240FEF7C5F800214FF43D40FEF7C0F875
:1049C00078214BF60150FEF7BBF800214BF6025060
:1049D000FEF7B6F800214FF43E40FEF7B1F864212F
:1049E0004BF60160FEF7ACF800214FF45140FEF7A2
:1049F000A7F833214DF20110FEF7A2F800214DF285
:104A00000210FEF79DF834214DF20310FEF798F8DE
:104A100000214DF20410FEF793F83A214DF20510F3
:104A2000FEF78EF800214DF20610FEF789F84A21B4
:104A30004DF20710FEF784F800214DF20810FEF742
:104A40007FF85C214DF20910FEF77AF800214DF253
:104A50000A10FEF775F881214DF20B10FEF770F881
:104A600000214DF20C10FEF76BF8A6214DF20D104F
:104A7000FEF766F800214DF20E10FEF761F8E52111
:104A80004DF20F10FEF75CF801214DF21010FEF709
:104A900057F813214DF21110FEF752F801214DF293
:104AA0001210FEF74DF854214DF21310FEF748F89E
:104AB00001214DF21410FEF743F882214DF215103A
:104AC000FEF73EF801214DF21610FEF739F8CA2123
:104AD0004DF21710FEF734F802214DF21810FEF7D0
:104AE0002FF800214DF21910FEF72AF802214DF29D
:104AF0001A10FEF725F801214DF21B10FEF720F8E1
:104B000002214DF21C10FEF71BF834214DF21D104E
:104B1000FEF716F802214DF21E10FEF711F867217C
:104B20004DF21F10FEF70CF802214DF22010FEF797
:104B300007F884214DF22110FEF702F802214DF210
:104B40002210FDF7FDFFA4214DF22310FDF7F8FF21
:104B500002214DF22410FDF7F3FFB7214DF225108D
:104B6000FDF7EEFF02214DF22610FDF7E9FFCF2100
:104B70004DF22710FDF7E4FF02214DF22810FDF75A
:104B8000DFFFDE214DF22910FDF7DAFF02214DF2A1
:104B90002A10FDF7D5FFF2214DF22B10FDF7D0FFC3
:104BA00002214DF22C10FDF7CBFFFE214DF22D100E
:104BB000FDF7C6FF03214DF22E10FDF7C1FF1021B6
:104BC0004DF22F10FDF7BCFF03214DF23010FDF721
:104BD000B7FF33214DF23110FDF7B2FF03214DF243
:104BE0003210FDF7ADFF6D214DF23310FDF7A8FF38
:104BF00000214FF45240FDF7A3FF33214DF2012075
:104C0000FDF79EFF00214DF20220FDF799FF3421B0
:104C10004DF20320FDF794FF00214DF20420FDF733
:104C20008FFF3A214DF20520FDF78AFF00214DF25A
:104C30000620FDF785FF4A214DF20720FDF780FF92
:104C400000214DF20820FDF77BFF5C214DF2092089
:104C5000FDF776FF00214DF20A20FDF771FF81215B
:104C60004DF20B20FDF76CFF00214DF20C20FDF7FB
:104C700067FFA6214DF20D20FDF762FF00214DF2E6
:104C80000E20FDF75DFFE5214DF20F20FDF758FFE7
:104C900001214DF21020FDF753FF13214DF2112099
:104CA000FDF74EFF01214DF21220FDF749FF54217F
:104CB0004DF21320FDF744FF01214DF21420FDF7C2
:104CC0003FFF82214DF21520FDF73AFF01214DF201
:104CD0001620FDF735FFCA214DF21720FDF730FFF2
:104CE00002214DF21820FDF72BFF00214DF2192073
:104CF000FDF726FF02214DF21A20FDF721FF0121C9
:104D00004DF21B20FDF71CFF02214DF21C20FDF788
:104D100017FF34214DF21D20FDF712FF02214DF245
:104D20001E20FDF70DFF67214DF21F20FDF708FF44
:104D300002214DF22020FDF703FF84214DF22120B6
:104D4000FDF7FEFE02214DF22220FDF7F9FEA4211F
:104D50004DF22320FDF7F4FE02214DF22420FDF751
:104D6000EFFEB7214DF22520FDF7EAFE02214DF2BC
:104D70002620FDF7E5FECF214DF22720FDF7E0FECE
:104D800002214DF22820FDF7DBFEDE214DF2292025
:104D9000FDF7D6FE02214DF22A20FDF7D1FEF221C9
:104DA0004DF22B20FDF7CCFE02214DF22C20FDF719
:104DB000C7FEFE214DF22D20FDF7C2FE03214DF26C
:104DC0002E20FDF7BDFE10214DF22F20FDF7B8FE7D
:104DD00003214DF23020FDF7B3FE33214DF2312097
:104DE000FDF7AEFE03214DF23220FDF7A9FE6D2145
:104DF0004DF23320FDF7A4FE00214FF45340FDF7A0
:104E00009FFE33214DF20130FDF79AFE00214DF255
:104E10000230FDF795FE34214DF20330FDF790FE90
:104E200000214DF20430FDF78BFE3A214DF20530A2
:104E3000FDF786FE00214DF20630FDF781FE4A2186
:104E40004DF20730FDF77CFE00214DF20830FDF7F2
:104E500077FE5C214DF20930FDF772FE00214DF224
:104E60000A30FDF76DFE81214DF20B30FDF768FE33
:104E700000214DF20C30FDF763FEA6214DF20D30FE
:104E8000FDF75EFE00214DF20E30FDF759FEE521E3
:104E90004DF20F30FDF754FE01214DF21030FDF7B9
:104EA0004FFE13214DF21130FDF74AFE01214DF264
:104EB0001230FDF745FE54214DF21330FDF740FE50
:104EC00001214DF21430FDF73BFE82214DF21530E9
:104ED000FDF736FE01214DF21630FDF731FECA21F5
:104EE0004DF21730FDF72CFE02214DF21830FDF780
:104EF00027FE00214DF21930FDF722FE02214DF26E
:104F00001A30FDF71DFE01214DF21B30FDF718FE92
:104F100002214DF21C30FDF713FE34214DF21D30FD
:104F2000FDF70EFE02214DF21E30FDF709FE67214E
:104F30004DF21F30FDF704FE02214DF22030FDF747
:104F4000FFFD84214DF22130FDF7FAFD02214DF2E3
:104F50002230FDF7F5FDA4214DF22330FDF7F0FDE1
:104F600002214DF22430FDF7EBFDB7214DF2253043
:104F7000FDF7E6FD02214DF22630FDF7E1FDCF21E0
:104F80004DF22730FDF7DCFD02214DF22830FDF710
:104F9000D7FDDE214DF22930FDF7D2FD02214DF281
:104FA0002A30FDF7CDFDF2214DF22B30FDF7C8FD83
:104FB00002214DF22C30FDF7C3FDFE214DF22D30C4
:104FC000FDF7BEFD03214DF22E30FDF7B9FD102196
:104FD0004DF22F30FDF7B4FD03214DF23030FDF7D7
:104FE000AFFD33214DF23130FDF7AAFD03214DF223
:104FF0003230FDF7A5FD6D214DF23330FDF7A0FDF8
:1050000000214FF45440FDF79BFD33214DF2014048
:10501000FDF796FD00214DF20240FDF791FD342190
:105020004DF20340FDF78CFD00214DF20440FDF7E9
:1050300087FD3A214DF20540FDF782FD00214DF23A
:105040000640FDF77DFD4A214DF20740FDF778FD52
:1050500000214DF20840FDF773FD5C214DF209403F
:10506000FDF76EFD00214DF20A40FDF769FD81213B
:105070004DF20B40FDF764FD00214DF20C40FDF7B1
:105080005FFDA6214DF20D40FDF75AFD00214DF2C6
:105090000E40FDF755FDE5214DF20F40FDF750FDA7
:1050A00001214DF21040FDF74BFD13214DF211404F
:1050B000FDF746FD01214DF21240FDF741FD54215F
:1050C0004DF21340FDF73CFD01214DF21440FDF778
:1050D00037FD82214DF21540FDF732FD01214DF2E1
:1050E0001640FDF72DFDCA214DF21740FDF728FDB2
:1050F00002214DF21840FDF723FD00214DF2194029
:10510000FDF71EFD02214DF21A40FDF719FD0121A8
:105110004DF21B40FDF714FD02214DF21C40FDF73E
:105120000FFD34214DF21D40FDF70AFD02214DF225
:105130001E40FDF705FD67214DF21F40FDF700FD04
:1051400002214DF22040FDF7FBFC84214DF221406D
:10515000FDF7F6FC02214DF22240FDF7F1FCA421FF
:105160004DF22340FDF7ECFC02214DF22440FDF707
:10517000E7FCB7214DF22540FDF7E2FC02214DF29C
:105180002640FDF7DDFCCF214DF22740FDF7D8FC8E
:1051900002214DF22840FDF7D3FCDE214DF22940DB
:1051A000FDF7CEFC02214DF22A40FDF7C9FCF221A9
:1051B0004DF22B40FDF7C4FC02214DF22C40FDF7CF
:1051C000BFFCFE214DF22D40FDF7BAFC03214DF24C
:1051D0002E40FDF7B5FC10214DF22F40FDF7B0FC3D
:1051E00003214DF23040FDF7ABFC33214DF231404D
:1051F000FDF7A6FC03214DF23240FDF7A1FC6D2125
:105200004DF23340FDF79CFC00214FF45540FDF773
:1052100097FC33214DF20150FDF792FC00214DF235
:105220000250FDF78DFC34214DF20350FDF788FC50
:1052300000214DF20450FDF783FC3A214DF2055058
:10524000FDF77EFC00214DF20650FDF779FC4A2166
:105250004DF20750FDF774FC00214DF20850FDF7A8
:105260006FFC5C214DF20950FDF76AFC00214DF204
:105270000A50FDF765FC81214DF20B50FDF760FCF3
:1052800000214DF20C50FDF75BFCA6214DF20D50B4
:10529000FDF756FC00214DF20E50FDF751FCE521C3
:1052A0004DF20F50FDF74CFC01214DF21050FDF76F
:1052B00047FC13214DF21150FDF742FC01214DF244
:1052C0001250FDF73DFC54214DF21350FDF738FC10
:1052D00001214DF21450FDF733FC82214DF215509F
:1052E000FDF72EFC01214DF21650FDF729FCCA21D5
:1052F0004DF21750FDF724FC02214DF21850FDF736
:105300001FFC00214DF21950FDF71AFC02214DF24D
:105310001A50FDF715FC01214DF21B50FDF710FC52
:1053200002214DF21C50FDF70BFC34214DF21D50B3
:10533000FDF706FC02214DF21E50FDF701FC67212E
:105340004DF21F50FDF7FCFB02214DF22050FDF7FE
:10535000F7FB84214DF22150FDF7F2FB02214DF2C3
:105360002250FDF7EDFBA4214DF22350FDF7E8FBA1
:1053700002214DF22450FDF7E3FBB7214DF22550F9
:10538000FDF7DEFB02214DF22650FDF7D9FBCF21C0
:105390004DF22750FDF7D4FB02214DF22850FDF7C6
:1053A000CFFBDE214DF22950FDF7CAFB02214DF261
:1053B0002A50FDF7C5FBF2214DF22B50FDF7C0FB43
:1053C00002214DF22C50FDF7BBFBFE214DF22D507A
:1053D000FDF7B6FB03214DF22E50FDF7B1FB102176
:1053E0004DF22F50FDF7ACFB03214DF23050FDF78D
:1053F000A7FB33214DF23150FDF7A2FB03214DF203
:105400003250FDF79DFB6D214DF23350FDF798FBB7
:1054100000214FF45640FDF793FB33214DF201601C
:10542000FDF78EFB00214DF20260FDF789FB342170
:105430004DF20360FDF784FB00214DF20460FDF79F
:105440007FFB3A214DF20560FDF77AFB00214DF21A
:105450000660FDF775FB4A214DF20760FDF770FB12
:1054600000214DF20860FDF76BFB5C214DF20960F5
:10547000FDF766FB00214DF20A60FDF761FB81211B
:105480004DF20B60FDF75CFB00214DF20C60FDF767
:1054900057FBA6214DF20D60FDF752FB00214DF2A6
:1054A0000E60FDF74DFBE5214DF20F60FDF748FB67
:1054B00001214DF21060FDF743FB13214DF2116005
:1054C000FDF73EFB01214DF21260FDF739FB54213F
:1054D0004DF21360FDF734FB01214DF21460FDF72E
:1054E0002FFB82214DF21560FDF72AFB01214DF2C1
:1054F0001660FDF725FBCA214DF21760FDF720FB72
:1055000002214DF21860FDF71BFB00214DF21960DE
:10551000FDF716FB02214DF21A60FDF711FB012188
:105520004DF21B60FDF70CFB02214DF21C60FDF7F4
:1055300007FB34214DF21D60FDF702FB02214DF205
:105540001E60FDF7FDFA67214DF21F60FDF7F8FAC6
:1055500002214DF22060FDF7F3FA84214DF2216023
:10556000FDF7EEFA02214DF22260FDF7E9FAA421DF
:105570004DF22360FDF7E4FA02214DF22460FDF7BD
:10558000DFFAB7214DF22560FDF7DAFA02214DF27C
:105590002660FDF7D5FACF214DF22760FDF7D0FA4E
:1055A00002214DF22860FDF7CBFADE214DF2296091
:1055B000FDF7C6FA02214DF22A60FDF7C1FAF22189
:1055C0004DF22B60FDF7BCFA02214DF22C60FDF785
:1055D000B7FAFE214DF22D60FDF7B2FA03214DF22C
:1055E0002E60FDF7ADFA10214DF22F60FDF7A8FAFD
:1055F00003214DF23060FDF7A3FA33214DF2316003
:10560000FDF79EFA03214DF23260FDF799FA6D2104
:105610004DF23360FDF794FA55214FF47040FDF7D9
:105620008FFAAA214FF20100FDF78AFA52214FF2B8
:105630000200FDF785FA08214FF20300FDF780FA1A
:1056400000214FF20400FDF77BFACC214FF43140EA
:10565000FDF776FA00214BF20110FDF771FA0521F2
:105660004FF43640FDF76CFA70214FF43740FDF7E8
:1056700067FA70214BF20170FDF762FA01214FF4D5
:105680003840FDF75DFA03214BF60100FDF758FAAB
:1056900003214BF60200FDF753FA03214BF60300FA
:1056A000FDF74EFA02214FF43C40FDF749FA002184
:1056B0004BF60140FDF744FA00214BF60240FDF79E
:1056C0003FFAD0214FF44940FDF73AFA02214CF657
:1056D0000110FDF735FA50214CF60210FDF730FAB3
:1056E00050214CF60310FDF72BFA50214CF6041014
:1056F000FDF726FA00214FF45450FDF721FA552109
:105700004FF46850FDF71CFA4FF48850FDF7E6F9A6
:10571000782001F01FFA4FF42450FDF7DFF9FEF76F
:105720004FB847F6F001E520FDF70AFA4FF4807113
:105730000120FDF705FA4FF4E0610220FDF700FAC1
:1057400041F230010320FDF7FBF900210420FDF7B1
:10575000F7F940F202210820FDF7F2F900210920B3
:10576000FDF7EEF900210A20FDF7EAF900210C20EF
:10577000FDF7E6F900210D20FDF7E2F900210F20E9
:10578000FDF7DEF900211020FDF7DAF907211120DD
:10579000FDF7D6F900211220FDF7D2F900211320E0
:1057A000FDF7CEF900210720FDF7CAF941F290611B
:1057B0001020FDF7C5F940F227211120FDF7C0F9AF
:1057C0009D211220FDF7BCF94FF4C8511320FDF7BD
:1057D000B7F925212920FDF7B3F90D212B20FDF77D
:1057E000AFF907213020FDF7ABF940F2033131204A
:1057F000FDF7A6F903213220FDF7A2F940F20621B8
:105800003520FDF79DF908213620FDF799F940F282
:1058100006413720FDF794F94FF441713820FDF728
:105820008FF907213920FDF78BF940F202613C2006
:10583000FDF786F908213D20FDF782F9002150206F
:10584000FDF77EF9EF215120FDF77AF90021522072
:10585000FDF776F940F23F115320FDF771F94FF44F
:1058600027416020FDF76CF901216120FDF768F9FF
:1058700000216A20FDF764F900218020FDF760F91E
:1058800000218120FDF75CF900218220FDF758F905
:1058900000218320FDF754F900218420FDF750F901
:1058A00000218520FDF74CF910219020FDF748F9E3
:1058B0004FF4C0619220FDF743F940F23311072005
:1058C000FDF73EF922210020FDF73AF9FDF778BFF8
:1058D00041F28F01EC20FDF733F941F23421EF2042
:1058E000FDF72EF94FF480710120FDF729F94FF4EF
:1058F000E0610220FDF724F941F230010320FDF7B9
:105900001FF900210420FDF71BF940F202210820B5
:10591000FDF716F900210920FDF712F900210A20F0
:10592000FDF70EF901210C20FDF70AF900210D20E9
:10593000FDF706F900210F20FDF702F900211020E4
:10594000FDF7FEF807211120FDF7FAF800211220DB
:10595000FDF7F6F800211320FDF7F2F801210720EA
:10596000FDF7EEF8322001F047FA41F290411020A5
:10597000FDF7E6F840F227211120FDF7E1F832208B
:1059800001F03AFA8A211220FDF7DAF8322001F00C
:1059900033FA4FF4D0511320FDF7D2F80621292015
:1059A000FDF7CEF80D212B20FDF7CAF8322001F0CB
:1059B00023FA00212020FDF7C3F800212120FDF764
:1059C000BFF8322001F018FA00213020FDF7B8F8B6
:1059D00040F204613120FDF7B3F840F20531322086
:1059E000FDF7AEF800213520FDF7AAF840F6094191
:1059F0003620FDF7A5F84FF401713720FDF7A0F828
:105A000040F201313820FDF79BF840F20771392050
:105A1000FDF796F800213C20FDF792F840F60A21A8
:105A20003D20FDF78DF8322001F0E6F900215020ED
:105A3000FDF786F8EF215120FDF782F80021522072
:105A4000FDF77EF840F23F115320FDF779F84FF44F
:105A500027416020FDF774F801216120FDF770F8FF
:105A600000216A20FDF76CF800218020FDF768F81E
:105A700000218120FDF764F800218220FDF760F805
:105A800000218320FDF75CF800218420FDF758F801
:105A900000218520FDF754F810219020FDF750F8E3
:105AA0004FF4C0619220FDF74BF840F2331107200C
:105AB000FDF746F8FDF784BE00210846FDF740F8E3
:105AC0004FF480710120FDF73BF84FF4E0610220B4
:105AD000FDF736F841F230010320FDF731F80021DF
:105AE0000420FDF72DF840F202210820FDF728F8E8
:105AF00000210920FDF724F800210A20FDF720F8F5
:105B000001210C20FDF71CF800210D20FDF718F8ED
